{
  "_format": "hh-sol-artifact-1",
  "contractName": "CurateAISettlement",
  "sourceName": "contracts/settle.sol",
  "abi": [
    {
      "inputs": [
        {
          "internalType": "address",
          "name": "_tokenAddress",
          "type": "address"
        },
        {
          "internalType": "address",
          "name": "_votingAddress",
          "type": "address"
        },
        {
          "internalType": "address",
          "name": "_roleManager",
          "type": "address"
        }
      ],
      "stateMutability": "nonpayable",
      "type": "constructor"
    },
    {
      "anonymous": false,
      "inputs": [
        {
          "indexed": true,
          "internalType": "uint256",
          "name": "day",
          "type": "uint256"
        },
        {
          "indexed": false,
          "internalType": "uint256",
          "name": "totalReward",
          "type": "uint256"
        }
      ],
      "name": "DailySettlement",
      "type": "event"
    },
    {
      "anonymous": false,
      "inputs": [
        {
          "indexed": true,
          "internalType": "address",
          "name": "user",
          "type": "address"
        },
        {
          "indexed": false,
          "internalType": "uint256",
          "name": "totalAmount",
          "type": "uint256"
        }
      ],
      "name": "RewardsClaimed",
      "type": "event"
    },
    {
      "inputs": [],
      "name": "AI_AGENT_ROLE",
      "outputs": [
        {
          "internalType": "bytes32",
          "name": "",
          "type": "bytes32"
        }
      ],
      "stateMutability": "view",
      "type": "function"
    },
    {
      "inputs": [],
      "name": "CURATOR_ROLE",
      "outputs": [
        {
          "internalType": "bytes32",
          "name": "",
          "type": "bytes32"
        }
      ],
      "stateMutability": "view",
      "type": "function"
    },
    {
      "inputs": [],
      "name": "SETTLEMENT_ROLE",
      "outputs": [
        {
          "internalType": "bytes32",
          "name": "",
          "type": "bytes32"
        }
      ],
      "stateMutability": "view",
      "type": "function"
    },
    {
      "inputs": [],
      "name": "VOTING_CONTRACT",
      "outputs": [
        {
          "internalType": "bytes32",
          "name": "",
          "type": "bytes32"
        }
      ],
      "stateMutability": "view",
      "type": "function"
    },
    {
      "inputs": [],
      "name": "claimRewards",
      "outputs": [],
      "stateMutability": "nonpayable",
      "type": "function"
    },
    {
      "inputs": [
        {
          "internalType": "uint256",
          "name": "",
          "type": "uint256"
        }
      ],
      "name": "dailyRewards",
      "outputs": [
        {
          "internalType": "uint256",
          "name": "totalReward",
          "type": "uint256"
        },
        {
          "internalType": "uint256",
          "name": "rewardPerVote",
          "type": "uint256"
        },
        {
          "internalType": "bool",
          "name": "settled",
          "type": "bool"
        }
      ],
      "stateMutability": "view",
      "type": "function"
    },
    {
      "inputs": [
        {
          "internalType": "address",
          "name": "user",
          "type": "address"
        }
      ],
      "name": "getClaimableAmount",
      "outputs": [
        {
          "internalType": "uint256",
          "name": "",
          "type": "uint256"
        }
      ],
      "stateMutability": "view",
      "type": "function"
    },
    {
      "inputs": [],
      "name": "getCurrentDay",
      "outputs": [
        {
          "internalType": "uint256",
          "name": "",
          "type": "uint256"
        }
      ],
      "stateMutability": "view",
      "type": "function"
    },
    {
      "inputs": [],
      "name": "roleManager",
      "outputs": [
        {
          "internalType": "contract IRoleManager",
          "name": "",
          "type": "address"
        }
      ],
      "stateMutability": "view",
      "type": "function"
    },
    {
      "inputs": [
        {
          "internalType": "uint256",
          "name": "day",
          "type": "uint256"
        }
      ],
      "name": "settleDay",
      "outputs": [],
      "stateMutability": "nonpayable",
      "type": "function"
    },
    {
      "inputs": [],
      "name": "token",
      "outputs": [
        {
          "internalType": "contract IContentMediaToken",
          "name": "",
          "type": "address"
        }
      ],
      "stateMutability": "view",
      "type": "function"
    },
    {
      "inputs": [],
      "name": "voting",
      "outputs": [
        {
          "internalType": "contract ICurateAIVote",
          "name": "",
          "type": "address"
        }
      ],
      "stateMutability": "view",
      "type": "function"
    }
  ],
  "bytecode": "0x608060405234801561001057600080fd5b506040516119d33803806119d3833981810160405281019061003291906102ae565b80600073ffffffffffffffffffffffffffffffffffffffff168173ffffffffffffffffffffffffffffffffffffffff16036100a2576040517f08c379a00000000000000000000000000000000000000000000000000000000081526004016100999061035e565b60405180910390fd5b806000806101000a81548173ffffffffffffffffffffffffffffffffffffffff021916908373ffffffffffffffffffffffffffffffffffffffff16021790555050600073ffffffffffffffffffffffffffffffffffffffff168373ffffffffffffffffffffffffffffffffffffffff1603610152576040517f08c379a0000000000000000000000000000000000000000000000000000000008152600401610149906103ca565b60405180910390fd5b600073ffffffffffffffffffffffffffffffffffffffff168273ffffffffffffffffffffffffffffffffffffffff16036101c1576040517f08c379a00000000000000000000000000000000000000000000000000000000081526004016101b890610436565b60405180910390fd5b82600160006101000a81548173ffffffffffffffffffffffffffffffffffffffff021916908373ffffffffffffffffffffffffffffffffffffffff16021790555081600260006101000a81548173ffffffffffffffffffffffffffffffffffffffff021916908373ffffffffffffffffffffffffffffffffffffffff160217905550505050610456565b600080fd5b600073ffffffffffffffffffffffffffffffffffffffff82169050919050565b600061027b82610250565b9050919050565b61028b81610270565b811461029657600080fd5b50565b6000815190506102a881610282565b92915050565b6000806000606084860312156102c7576102c661024b565b5b60006102d586828701610299565b93505060206102e686828701610299565b92505060406102f786828701610299565b9150509250925092565b600082825260208201905092915050565b7f496e76616c696420526f6c654d616e6167657220616464726573730000000000600082015250565b6000610348601b83610301565b915061035382610312565b602082019050919050565b600060208201905081810360008301526103778161033b565b9050919050565b7f496e76616c696420746f6b656e20616464726573730000000000000000000000600082015250565b60006103b4601583610301565b91506103bf8261037e565b602082019050919050565b600060208201905081810360008301526103e3816103a7565b9050919050565b7f496e76616c696420766f74696e67206164647265737300000000000000000000600082015250565b6000610420601683610301565b915061042b826103ea565b602082019050919050565b6000602082019050818103600083015261044f81610413565b9050919050565b61156e806104656000396000f3fe608060405234801561001057600080fd5b50600436106100b35760003560e01c806397b62a721161007157806397b62a7214610156578063b203dc6014610174578063ba9cf01d146101a6578063e12f3a61146101c4578063fc0c546a146101f4578063fce1ccca14610212576100b3565b8062435da5146100b857806325b8e7eb146100d6578063372500ab146100f45780633e6968b6146100fe5780634a2cfb541461011c5780638093067c1461013a575b600080fd5b6100c0610230565b6040516100cd9190610d16565b60405180910390f35b6100de610254565b6040516100eb9190610d4a565b60405180910390f35b6100fc610278565b005b610106610551565b6040516101139190610d7e565b60405180910390f35b610124610567565b6040516101319190610d4a565b60405180910390f35b610154600480360381019061014f9190610dd9565b61058b565b005b61015e6109ed565b60405161016b9190610d4a565b60405180910390f35b61018e60048036038101906101899190610dd9565b610a11565b60405161019d93929190610e21565b60405180910390f35b6101ae610a48565b6040516101bb9190610d4a565b60405180910390f35b6101de60048036038101906101d99190610e96565b610a6c565b6040516101eb9190610d7e565b60405180910390f35b6101fc610c4b565b6040516102099190610ee4565b60405180910390f35b61021a610c71565b6040516102279190610f20565b60405180910390f35b60008054906101000a900473ffffffffffffffffffffffffffffffffffffffff1681565b7ffaa623ff490ff9197b5ad863cd7f72b33e2e131994d09bd7260d7cd680faad7981565b7f850d585eb7f024ccee5e68e55f2c26cc72e1e6ee456acf62135757a5eb9d4a1060008054906101000a900473ffffffffffffffffffffffffffffffffffffffff1673ffffffffffffffffffffffffffffffffffffffff166391d1485482336040518363ffffffff1660e01b81526004016102f4929190610f4a565b602060405180830381865afa158015610311573d6000803e3d6000fd5b505050506040513d601f19601f820116820180604052508101906103359190610f9f565b610374576040517f08c379a000000000000000000000000000000000000000000000000000000000815260040161036b9061104f565b60405180910390fd5b600061037f33610a6c565b9050600081116103c4576040517f08c379a00000000000000000000000000000000000000000000000000000000081526004016103bb906110bb565b60405180910390fd5b6000670de0b6b3a76400009050600081836103df9190611139565b9050600260009054906101000a900473ffffffffffffffffffffffffffffffffffffffff1673ffffffffffffffffffffffffffffffffffffffff166340f5fe2b336040518263ffffffff1660e01b815260040161043c919061116a565b600060405180830381600087803b15801561045657600080fd5b505af115801561046a573d6000803e3d6000fd5b50505050600160009054906101000a900473ffffffffffffffffffffffffffffffffffffffff1673ffffffffffffffffffffffffffffffffffffffff1663fb93210833836040518363ffffffff1660e01b81526004016104cb929190611185565b600060405180830381600087803b1580156104e557600080fd5b505af11580156104f9573d6000803e3d6000fd5b505050503373ffffffffffffffffffffffffffffffffffffffff167ffc30cddea38e2bf4d6ea7d3f9ed3b6ad7f176419f4963bd81318067a4aee73fe826040516105439190610d7e565b60405180910390a250505050565b600062015180426105629190611139565b905090565b7f850d585eb7f024ccee5e68e55f2c26cc72e1e6ee456acf62135757a5eb9d4a1081565b6000610595610551565b90508181116105d9576040517f08c379a00000000000000000000000000000000000000000000000000000000081526004016105d0906111fa565b60405180910390fd5b6003600083815260200190815260200160002060020160009054906101000a900460ff161561063d576040517f08c379a000000000000000000000000000000000000000000000000000000000815260040161063490611266565b60405180910390fd5b600160009054906101000a900473ffffffffffffffffffffffffffffffffffffffff1673ffffffffffffffffffffffffffffffffffffffff166395aaed926040518163ffffffff1660e01b8152600401600060405180830381600087803b1580156106a757600080fd5b505af11580156106bb573d6000803e3d6000fd5b505050506000600260009054906101000a900473ffffffffffffffffffffffffffffffffffffffff1673ffffffffffffffffffffffffffffffffffffffff166329ddf49c846040518263ffffffff1660e01b815260040161071c9190610d7e565b602060405180830381865afa158015610739573d6000803e3d6000fd5b505050506040513d601f19601f8201168201806040525081019061075d919061129b565b90506000670de0b6b3a76400009050600080831161077c576000610824565b8282600160009054906101000a900473ffffffffffffffffffffffffffffffffffffffff1673ffffffffffffffffffffffffffffffffffffffff1663a5ebc8446040518163ffffffff1660e01b8152600401602060405180830381865afa1580156107eb573d6000803e3d6000fd5b505050506040513d601f19601f8201168201806040525081019061080f919061129b565b61081991906112c8565b6108239190611139565b5b90506040518060600160405280600160009054906101000a900473ffffffffffffffffffffffffffffffffffffffff1673ffffffffffffffffffffffffffffffffffffffff1663a5ebc8446040518163ffffffff1660e01b8152600401602060405180830381865afa15801561089e573d6000803e3d6000fd5b505050506040513d601f19601f820116820180604052508101906108c2919061129b565b81526020018281526020016001151581525060036000878152602001908152602001600020600082015181600001556020820151816001015560408201518160020160006101000a81548160ff021916908315150217905550905050847fea512c9778e487b69387799188706db9407163e38216222dd0bcaa928e2ae268600160009054906101000a900473ffffffffffffffffffffffffffffffffffffffff1673ffffffffffffffffffffffffffffffffffffffff1663a5ebc8446040518163ffffffff1660e01b8152600401602060405180830381865afa1580156109ad573d6000803e3d6000fd5b505050506040513d601f19601f820116820180604052508101906109d1919061129b565b6040516109de9190610d7e565b60405180910390a25050505050565b7f07777a76947b185654bacbede92fa7043b0ec4c08f225b10ec1e040f321897bb81565b60036020528060005260406000206000915090508060000154908060010154908060020160009054906101000a900460ff16905083565b7f300f9ae985dc711960f7a4d1dd013f9c19ecf40bff149522ab7523b2187a384681565b600080600260009054906101000a900473ffffffffffffffffffffffffffffffffffffffff1673ffffffffffffffffffffffffffffffffffffffff16630706e5bd846040518263ffffffff1660e01b8152600401610aca919061116a565b600060405180830381865afa158015610ae7573d6000803e3d6000fd5b505050506040513d6000823e3d601f19601f82011682018060405250810190610b109190611463565b9050600080600090505b8251811015610c40576000838281518110610b3857610b376114ac565b5b6020026020010151905060006003600083815260200190815260200160002090508060020160009054906101000a900460ff1615610c31576000600260009054906101000a900473ffffffffffffffffffffffffffffffffffffffff1673ffffffffffffffffffffffffffffffffffffffff1663cb436d3f848a6040518363ffffffff1660e01b8152600401610bcf9291906114db565b602060405180830381865afa158015610bec573d6000803e3d6000fd5b505050506040513d601f19601f82011682018060405250810190610c10919061129b565b9050816001015481610c2291906112c8565b85610c2d9190611504565b9450505b50508080600101915050610b1a565b508092505050919050565b600160009054906101000a900473ffffffffffffffffffffffffffffffffffffffff1681565b600260009054906101000a900473ffffffffffffffffffffffffffffffffffffffff1681565b600073ffffffffffffffffffffffffffffffffffffffff82169050919050565b6000819050919050565b6000610cdc610cd7610cd284610c97565b610cb7565b610c97565b9050919050565b6000610cee82610cc1565b9050919050565b6000610d0082610ce3565b9050919050565b610d1081610cf5565b82525050565b6000602082019050610d2b6000830184610d07565b92915050565b6000819050919050565b610d4481610d31565b82525050565b6000602082019050610d5f6000830184610d3b565b92915050565b6000819050919050565b610d7881610d65565b82525050565b6000602082019050610d936000830184610d6f565b92915050565b6000604051905090565b600080fd5b600080fd5b610db681610d65565b8114610dc157600080fd5b50565b600081359050610dd381610dad565b92915050565b600060208284031215610def57610dee610da3565b5b6000610dfd84828501610dc4565b91505092915050565b60008115159050919050565b610e1b81610e06565b82525050565b6000606082019050610e366000830186610d6f565b610e436020830185610d6f565b610e506040830184610e12565b949350505050565b6000610e6382610c97565b9050919050565b610e7381610e58565b8114610e7e57600080fd5b50565b600081359050610e9081610e6a565b92915050565b600060208284031215610eac57610eab610da3565b5b6000610eba84828501610e81565b91505092915050565b6000610ece82610ce3565b9050919050565b610ede81610ec3565b82525050565b6000602082019050610ef96000830184610ed5565b92915050565b6000610f0a82610ce3565b9050919050565b610f1a81610eff565b82525050565b6000602082019050610f356000830184610f11565b92915050565b610f4481610e58565b82525050565b6000604082019050610f5f6000830185610d3b565b610f6c6020830184610f3b565b9392505050565b610f7c81610e06565b8114610f8757600080fd5b50565b600081519050610f9981610f73565b92915050565b600060208284031215610fb557610fb4610da3565b5b6000610fc384828501610f8a565b91505092915050565b600082825260208201905092915050565b7f43616c6c657220646f6573206e6f74206861766520726571756972656420726f60008201527f6c65000000000000000000000000000000000000000000000000000000000000602082015250565b6000611039602283610fcc565b915061104482610fdd565b604082019050919050565b600060208201905081810360008301526110688161102c565b9050919050565b7f4e6f207265776172647320746f20636c61696d00000000000000000000000000600082015250565b60006110a5601383610fcc565b91506110b08261106f565b602082019050919050565b600060208201905081810360008301526110d481611098565b9050919050565b7f4e487b7100000000000000000000000000000000000000000000000000000000600052601260045260246000fd5b7f4e487b7100000000000000000000000000000000000000000000000000000000600052601160045260246000fd5b600061114482610d65565b915061114f83610d65565b92508261115f5761115e6110db565b5b828204905092915050565b600060208201905061117f6000830184610f3b565b92915050565b600060408201905061119a6000830185610f3b565b6111a76020830184610d6f565b9392505050565b7f43616e206f6e6c7920736574746c652070617374206461797300000000000000600082015250565b60006111e4601983610fcc565b91506111ef826111ae565b602082019050919050565b60006020820190508181036000830152611213816111d7565b9050919050565b7f44617920616c726561647920736574746c656400000000000000000000000000600082015250565b6000611250601383610fcc565b915061125b8261121a565b602082019050919050565b6000602082019050818103600083015261127f81611243565b9050919050565b60008151905061129581610dad565b92915050565b6000602082840312156112b1576112b0610da3565b5b60006112bf84828501611286565b91505092915050565b60006112d382610d65565b91506112de83610d65565b92508282026112ec81610d65565b915082820484148315176113035761130261110a565b5b5092915050565b600080fd5b6000601f19601f8301169050919050565b7f4e487b7100000000000000000000000000000000000000000000000000000000600052604160045260246000fd5b6113588261130f565b810181811067ffffffffffffffff8211171561137757611376611320565b5b80604052505050565b600061138a610d99565b9050611396828261134f565b919050565b600067ffffffffffffffff8211156113b6576113b5611320565b5b602082029050602081019050919050565b600080fd5b60006113df6113da8461139b565b611380565b90508083825260208201905060208402830185811115611402576114016113c7565b5b835b8181101561142b57806114178882611286565b845260208401935050602081019050611404565b5050509392505050565b600082601f83011261144a5761144961130a565b5b815161145a8482602086016113cc565b91505092915050565b60006020828403121561147957611478610da3565b5b600082015167ffffffffffffffff81111561149757611496610da8565b5b6114a384828501611435565b91505092915050565b7f4e487b7100000000000000000000000000000000000000000000000000000000600052603260045260246000fd5b60006040820190506114f06000830185610d6f565b6114fd6020830184610f3b565b9392505050565b600061150f82610d65565b915061151a83610d65565b92508282019050808211156115325761153161110a565b5b9291505056fea2646970667358221220252f1efc10798ff7de943d81451b67d43230fd3c440daa7be01ebe1f7ee4029f64736f6c634300081c0033",
  "linkReferences": {},
  "deployedLinkReferences": {}
}