{
  "_format": "hh-sol-artifact-1",
  "contractName": "CurateAIRoleManager",
  "sourceName": "contracts/roleManager.sol",
  "abi": [
    {
      "inputs": [],
      "stateMutability": "nonpayable",
      "type": "constructor"
    },
    {
      "inputs": [],
      "name": "AccessControlBadConfirmation",
      "type": "error"
    },
    {
      "inputs": [
        {
          "internalType": "address",
          "name": "account",
          "type": "address"
        },
        {
          "internalType": "bytes32",
          "name": "neededRole",
          "type": "bytes32"
        }
      ],
      "name": "AccessControlUnauthorizedAccount",
      "type": "error"
    },
    {
      "inputs": [],
      "name": "ReentrancyGuardReentrantCall",
      "type": "error"
    },
    {
      "anonymous": false,
      "inputs": [
        {
          "indexed": true,
          "internalType": "address",
          "name": "account",
          "type": "address"
        },
        {
          "indexed": true,
          "internalType": "address",
          "name": "assigner",
          "type": "address"
        }
      ],
      "name": "AIAgentAssigned",
      "type": "event"
    },
    {
      "anonymous": false,
      "inputs": [
        {
          "indexed": true,
          "internalType": "address",
          "name": "account",
          "type": "address"
        },
        {
          "indexed": true,
          "internalType": "address",
          "name": "assigner",
          "type": "address"
        }
      ],
      "name": "CuratorAssigned",
      "type": "event"
    },
    {
      "anonymous": false,
      "inputs": [
        {
          "indexed": true,
          "internalType": "address",
          "name": "account",
          "type": "address"
        },
        {
          "indexed": true,
          "internalType": "address",
          "name": "assigner",
          "type": "address"
        }
      ],
      "name": "ModeratorAssigned",
      "type": "event"
    },
    {
      "anonymous": false,
      "inputs": [
        {
          "indexed": true,
          "internalType": "address",
          "name": "account",
          "type": "address"
        },
        {
          "indexed": true,
          "internalType": "address",
          "name": "revoker",
          "type": "address"
        }
      ],
      "name": "ModeratorRevoked",
      "type": "event"
    },
    {
      "anonymous": false,
      "inputs": [
        {
          "indexed": true,
          "internalType": "bytes32",
          "name": "role",
          "type": "bytes32"
        },
        {
          "indexed": true,
          "internalType": "bytes32",
          "name": "previousAdminRole",
          "type": "bytes32"
        },
        {
          "indexed": true,
          "internalType": "bytes32",
          "name": "newAdminRole",
          "type": "bytes32"
        }
      ],
      "name": "RoleAdminChanged",
      "type": "event"
    },
    {
      "anonymous": false,
      "inputs": [
        {
          "indexed": true,
          "internalType": "bytes32",
          "name": "role",
          "type": "bytes32"
        },
        {
          "indexed": true,
          "internalType": "address",
          "name": "account",
          "type": "address"
        },
        {
          "indexed": true,
          "internalType": "address",
          "name": "sender",
          "type": "address"
        }
      ],
      "name": "RoleGranted",
      "type": "event"
    },
    {
      "anonymous": false,
      "inputs": [
        {
          "indexed": true,
          "internalType": "bytes32",
          "name": "role",
          "type": "bytes32"
        },
        {
          "indexed": true,
          "internalType": "address",
          "name": "account",
          "type": "address"
        },
        {
          "indexed": true,
          "internalType": "address",
          "name": "sender",
          "type": "address"
        }
      ],
      "name": "RoleRevoked",
      "type": "event"
    },
    {
      "anonymous": false,
      "inputs": [
        {
          "indexed": true,
          "internalType": "address",
          "name": "settlementContract",
          "type": "address"
        },
        {
          "indexed": true,
          "internalType": "address",
          "name": "setter",
          "type": "address"
        }
      ],
      "name": "SettlementContractSet",
      "type": "event"
    },
    {
      "inputs": [],
      "name": "AI_AGENT_ROLE",
      "outputs": [
        {
          "internalType": "bytes32",
          "name": "",
          "type": "bytes32"
        }
      ],
      "stateMutability": "view",
      "type": "function"
    },
    {
      "inputs": [],
      "name": "CURATOR_ROLE",
      "outputs": [
        {
          "internalType": "bytes32",
          "name": "",
          "type": "bytes32"
        }
      ],
      "stateMutability": "view",
      "type": "function"
    },
    {
      "inputs": [],
      "name": "DEFAULT_ADMIN_ROLE",
      "outputs": [
        {
          "internalType": "bytes32",
          "name": "",
          "type": "bytes32"
        }
      ],
      "stateMutability": "view",
      "type": "function"
    },
    {
      "inputs": [],
      "name": "MODERATOR_ROLE",
      "outputs": [
        {
          "internalType": "bytes32",
          "name": "",
          "type": "bytes32"
        }
      ],
      "stateMutability": "view",
      "type": "function"
    },
    {
      "inputs": [],
      "name": "SETTLEMENT_ROLE",
      "outputs": [
        {
          "internalType": "bytes32",
          "name": "",
          "type": "bytes32"
        }
      ],
      "stateMutability": "view",
      "type": "function"
    },
    {
      "inputs": [],
      "name": "SUPER_ADMIN_ROLE",
      "outputs": [
        {
          "internalType": "bytes32",
          "name": "",
          "type": "bytes32"
        }
      ],
      "stateMutability": "view",
      "type": "function"
    },
    {
      "inputs": [],
      "name": "VOTING_CONTRACT",
      "outputs": [
        {
          "internalType": "bytes32",
          "name": "",
          "type": "bytes32"
        }
      ],
      "stateMutability": "view",
      "type": "function"
    },
    {
      "inputs": [],
      "name": "_curator_counter",
      "outputs": [
        {
          "internalType": "uint256",
          "name": "",
          "type": "uint256"
        }
      ],
      "stateMutability": "view",
      "type": "function"
    },
    {
      "inputs": [
        {
          "internalType": "address",
          "name": "account",
          "type": "address"
        }
      ],
      "name": "assignAIAgent",
      "outputs": [],
      "stateMutability": "nonpayable",
      "type": "function"
    },
    {
      "inputs": [
        {
          "internalType": "address",
          "name": "account",
          "type": "address"
        }
      ],
      "name": "assignCurator",
      "outputs": [],
      "stateMutability": "nonpayable",
      "type": "function"
    },
    {
      "inputs": [
        {
          "internalType": "address",
          "name": "account",
          "type": "address"
        }
      ],
      "name": "assignModerator",
      "outputs": [],
      "stateMutability": "nonpayable",
      "type": "function"
    },
    {
      "inputs": [
        {
          "internalType": "bytes32",
          "name": "role",
          "type": "bytes32"
        }
      ],
      "name": "getRoleAdmin",
      "outputs": [
        {
          "internalType": "bytes32",
          "name": "",
          "type": "bytes32"
        }
      ],
      "stateMutability": "view",
      "type": "function"
    },
    {
      "inputs": [
        {
          "internalType": "bytes32",
          "name": "role",
          "type": "bytes32"
        },
        {
          "internalType": "address",
          "name": "account",
          "type": "address"
        }
      ],
      "name": "grantRole",
      "outputs": [],
      "stateMutability": "nonpayable",
      "type": "function"
    },
    {
      "inputs": [
        {
          "internalType": "bytes32",
          "name": "role",
          "type": "bytes32"
        },
        {
          "internalType": "address",
          "name": "account",
          "type": "address"
        }
      ],
      "name": "hasRole",
      "outputs": [
        {
          "internalType": "bool",
          "name": "",
          "type": "bool"
        }
      ],
      "stateMutability": "view",
      "type": "function"
    },
    {
      "inputs": [],
      "name": "isSettlementLocked",
      "outputs": [
        {
          "internalType": "bool",
          "name": "",
          "type": "bool"
        }
      ],
      "stateMutability": "view",
      "type": "function"
    },
    {
      "inputs": [
        {
          "internalType": "bytes32",
          "name": "role",
          "type": "bytes32"
        },
        {
          "internalType": "address",
          "name": "callerConfirmation",
          "type": "address"
        }
      ],
      "name": "renounceRole",
      "outputs": [],
      "stateMutability": "nonpayable",
      "type": "function"
    },
    {
      "inputs": [
        {
          "internalType": "address",
          "name": "account",
          "type": "address"
        }
      ],
      "name": "revokeModerator",
      "outputs": [],
      "stateMutability": "nonpayable",
      "type": "function"
    },
    {
      "inputs": [
        {
          "internalType": "bytes32",
          "name": "role",
          "type": "bytes32"
        },
        {
          "internalType": "address",
          "name": "account",
          "type": "address"
        }
      ],
      "name": "revokeRole",
      "outputs": [],
      "stateMutability": "nonpayable",
      "type": "function"
    },
    {
      "inputs": [
        {
          "internalType": "address",
          "name": "settlementContract",
          "type": "address"
        },
        {
          "internalType": "address",
          "name": "votingContract",
          "type": "address"
        }
      ],
      "name": "setSettlementAndVotingContract",
      "outputs": [],
      "stateMutability": "nonpayable",
      "type": "function"
    },
    {
      "inputs": [
        {
          "internalType": "bytes4",
          "name": "interfaceId",
          "type": "bytes4"
        }
      ],
      "name": "supportsInterface",
      "outputs": [
        {
          "internalType": "bool",
          "name": "",
          "type": "bool"
        }
      ],
      "stateMutability": "view",
      "type": "function"
    }
  ],
  "bytecode": "0x6101406040527f7613a25ecc738585a232ad50a301178f12b3ba8887d13e138b523c4269c476896080908152507f71f3d55856e4058ed06ee057d79ada615f65cdf5f9ee88181b914225088f834f60a0908152507f850d585eb7f024ccee5e68e55f2c26cc72e1e6ee456acf62135757a5eb9d4a1060c0908152507f300f9ae985dc711960f7a4d1dd013f9c19ecf40bff149522ab7523b2187a384660e0908152507f07777a76947b185654bacbede92fa7043b0ec4c08f225b10ec1e040f321897bb610100908152507ffaa623ff490ff9197b5ad863cd7f72b33e2e131994d09bd7260d7cd680faad7961012090815250600060035534801561010257600080fd5b50600180819055506000339050610121608051826101c960201b60201c565b5061013460e051826101c960201b60201c565b5061014861010051826101c960201b60201c565b5061015d6080516080516102c660201b60201c565b61017160a0516080516102c660201b60201c565b61018560c05160a0516102c660201b60201c565b61019960e0516080516102c660201b60201c565b6101ae610100516080516102c660201b60201c565b6101c3610120516080516102c660201b60201c565b506103b8565b60006101db838361032760201b60201c565b6102bb57600160008085815260200190815260200160002060000160008473ffffffffffffffffffffffffffffffffffffffff1673ffffffffffffffffffffffffffffffffffffffff16815260200190815260200160002060006101000a81548160ff02191690831515021790555061025861039160201b60201c565b73ffffffffffffffffffffffffffffffffffffffff168273ffffffffffffffffffffffffffffffffffffffff16847f2f8788117e7eff1d82e926ec794901d17c78024a50270940304540a733656f0d60405160405180910390a4600190506102c0565b600090505b92915050565b60006102d78361039960201b60201c565b905081600080858152602001908152602001600020600101819055508181847fbd79b86ffe0ab8e8776151514217cd7cacd52c909f66475c3af44e129f0b00ff60405160405180910390a4505050565b600080600084815260200190815260200160002060000160008373ffffffffffffffffffffffffffffffffffffffff1673ffffffffffffffffffffffffffffffffffffffff16815260200190815260200160002060009054906101000a900460ff16905092915050565b600033905090565b6000806000838152602001908152602001600020600101549050919050565b60805160a05160c05160e0516101005161012051611b26610485600039600081816104c7015261056c01526000818161063a01528181610a4101528181610a9701528181610be70152610d5a01526000818161061101528181610a1601528181610a6c01528181610c120152610d1901526000818161088401528181610cb70152610fbb01526000818161075f01528181610b4201528181610e810152610f0701526000818161042b015281816106c301528181610860015281816108ae0152610de50152611b266000f3fe608060405234801561001057600080fd5b506004361061012c5760003560e01c80637479e14c116100ad578063a217fddf11610071578063a217fddf1461031f578063ba9cf01d1461033d578063d547741f1461035b578063d9980d7914610377578063ffafdc41146103935761012c565b80637479e14c14610279578063797669c9146102955780637c63c64f146102b357806391d14854146102d157806397b62a72146103015761012c565b806336445636116100f457806336445636146101e757806336568abe146102035780634460bdd61461021f5780634a2cfb541461023d578063595743711461025b5761012c565b806301ffc9a7146101315780630b70aa8b14610161578063248a9ca31461017d57806325b8e7eb146101ad5780632f2ff15d146101cb575b600080fd5b61014b600480360381019061014691906113e9565b6103af565b6040516101589190611431565b60405180910390f35b61017b600480360381019061017691906114aa565b610429565b005b6101976004803603810190610192919061150d565b61054b565b6040516101a49190611549565b60405180910390f35b6101b561056a565b6040516101c29190611549565b60405180910390f35b6101e560048036038101906101e09190611564565b61058e565b005b61020160048036038101906101fc91906114aa565b6106c1565b005b61021d60048036038101906102189190611564565b6107e3565b005b61022761085e565b6040516102349190611549565b60405180910390f35b610245610882565b6040516102529190611549565b60405180910390f35b6102636108a6565b60405161027091906115bd565b60405180910390f35b610293600480360381019061028e91906115d8565b6108ac565b005b61029d610b40565b6040516102aa9190611549565b60405180910390f35b6102bb610b64565b6040516102c89190611431565b60405180910390f35b6102eb60048036038101906102e69190611564565b610b7b565b6040516102f89190611431565b60405180910390f35b610309610be5565b6040516103169190611549565b60405180910390f35b610327610c09565b6040516103349190611549565b60405180910390f35b610345610c10565b6040516103529190611549565b60405180910390f35b61037560048036038101906103709190611564565b610c34565b005b610391600480360381019061038c91906114aa565b610de3565b005b6103ad60048036038101906103a891906114aa565b610f05565b005b60007f7965db0b000000000000000000000000000000000000000000000000000000007bffffffffffffffffffffffffffffffffffffffffffffffffffffffff1916827bffffffffffffffffffffffffffffffffffffffffffffffffffffffff1916148061042257506104218261103f565b5b9050919050565b7f0000000000000000000000000000000000000000000000000000000000000000610453816110a9565b600073ffffffffffffffffffffffffffffffffffffffff168273ffffffffffffffffffffffffffffffffffffffff16036104c2576040517f08c379a00000000000000000000000000000000000000000000000000000000081526004016104b990611675565b60405180910390fd5b6104ec7f0000000000000000000000000000000000000000000000000000000000000000836110bd565b503373ffffffffffffffffffffffffffffffffffffffff168273ffffffffffffffffffffffffffffffffffffffff167febbcdd1c8d1b4e4339445f4da25fac18e2e71a5828d0e5615d753bd66c71df7c60405160405180910390a35050565b6000806000838152602001908152602001600020600101549050919050565b7f000000000000000000000000000000000000000000000000000000000000000081565b6105978261054b565b6105a0816110a9565b600073ffffffffffffffffffffffffffffffffffffffff168273ffffffffffffffffffffffffffffffffffffffff160361060f576040517f08c379a0000000000000000000000000000000000000000000000000000000008152600401610606906116e1565b60405180910390fd5b7f000000000000000000000000000000000000000000000000000000000000000083148061065c57507f000000000000000000000000000000000000000000000000000000000000000083145b156106b257600260009054906101000a900460ff16156106b1576040517f08c379a00000000000000000000000000000000000000000000000000000000081526004016106a89061174d565b60405180910390fd5b5b6106bc83836111ae565b505050565b7f00000000000000000000000000000000000000000000000000000000000000006106eb816110a9565b600073ffffffffffffffffffffffffffffffffffffffff168273ffffffffffffffffffffffffffffffffffffffff160361075a576040517f08c379a0000000000000000000000000000000000000000000000000000000008152600401610751906117b9565b60405180910390fd5b6107847f0000000000000000000000000000000000000000000000000000000000000000836111d0565b503373ffffffffffffffffffffffffffffffffffffffff168273ffffffffffffffffffffffffffffffffffffffff167fee36db3bec601c70ec0a49c164be51a6d3e79f77e3a9d8933fd670b65237b55860405160405180910390a35050565b6107eb6112c2565b73ffffffffffffffffffffffffffffffffffffffff168173ffffffffffffffffffffffffffffffffffffffff161461084f576040517f6697b23200000000000000000000000000000000000000000000000000000000815260040160405180910390fd5b61085982826111d0565b505050565b7f000000000000000000000000000000000000000000000000000000000000000081565b7f000000000000000000000000000000000000000000000000000000000000000081565b60035481565b7f00000000000000000000000000000000000000000000000000000000000000006108d6816110a9565b6108de6112ca565b600260009054906101000a900460ff161561092e576040517f08c379a000000000000000000000000000000000000000000000000000000000815260040161092590611825565b60405180910390fd5b600073ffffffffffffffffffffffffffffffffffffffff168373ffffffffffffffffffffffffffffffffffffffff160361099d576040517f08c379a0000000000000000000000000000000000000000000000000000000008152600401610994906118b7565b60405180910390fd5b600073ffffffffffffffffffffffffffffffffffffffff168273ffffffffffffffffffffffffffffffffffffffff1603610a0c576040517f08c379a0000000000000000000000000000000000000000000000000000000008152600401610a03906118b7565b60405180910390fd5b6000339050610a3b7f0000000000000000000000000000000000000000000000000000000000000000826111d0565b50610a667f0000000000000000000000000000000000000000000000000000000000000000826111d0565b50610a917f0000000000000000000000000000000000000000000000000000000000000000856110bd565b50610abc7f0000000000000000000000000000000000000000000000000000000000000000846110bd565b506001600260006101000a81548160ff0219169083151502179055508073ffffffffffffffffffffffffffffffffffffffff168473ffffffffffffffffffffffffffffffffffffffff167fe26d32c11d842d75c1e673d21d68bc1bef23232e3dafa462c57d3e8eebe297e360405160405180910390a350610b3b611310565b505050565b7f000000000000000000000000000000000000000000000000000000000000000081565b6000600260009054906101000a900460ff16905090565b600080600084815260200190815260200160002060000160008373ffffffffffffffffffffffffffffffffffffffff1673ffffffffffffffffffffffffffffffffffffffff16815260200190815260200160002060009054906101000a900460ff16905092915050565b7f000000000000000000000000000000000000000000000000000000000000000081565b6000801b81565b7f000000000000000000000000000000000000000000000000000000000000000081565b610c3d8261054b565b610c46816110a9565b600073ffffffffffffffffffffffffffffffffffffffff168273ffffffffffffffffffffffffffffffffffffffff1603610cb5576040517f08c379a0000000000000000000000000000000000000000000000000000000008152600401610cac906116e1565b60405180910390fd5b7f00000000000000000000000000000000000000000000000000000000000000008303610d17576040517f08c379a0000000000000000000000000000000000000000000000000000000008152600401610d0e90611923565b60405180910390fd5b7f000000000000000000000000000000000000000000000000000000000000000083148015610d525750600260009054906101000a900460ff165b80610d9457507f000000000000000000000000000000000000000000000000000000000000000083148015610d935750600260009054906101000a900460ff165b5b15610dd4576040517f08c379a0000000000000000000000000000000000000000000000000000000008152600401610dcb906119b5565b60405180910390fd5b610dde8383611319565b505050565b7f0000000000000000000000000000000000000000000000000000000000000000610e0d816110a9565b600073ffffffffffffffffffffffffffffffffffffffff168273ffffffffffffffffffffffffffffffffffffffff1603610e7c576040517f08c379a0000000000000000000000000000000000000000000000000000000008152600401610e73906117b9565b60405180910390fd5b610ea67f0000000000000000000000000000000000000000000000000000000000000000836110bd565b503373ffffffffffffffffffffffffffffffffffffffff168273ffffffffffffffffffffffffffffffffffffffff167f2168301e3903b8e89cb50ad39241defcbf41e596aae44d29883f812f1093073560405160405180910390a35050565b7f0000000000000000000000000000000000000000000000000000000000000000610f2f816110a9565b600073ffffffffffffffffffffffffffffffffffffffff168273ffffffffffffffffffffffffffffffffffffffff1603610f9e576040517f08c379a0000000000000000000000000000000000000000000000000000000008152600401610f9590611a21565b60405180910390fd5b60036000815480929190610fb190611a70565b9190505550610fe07f0000000000000000000000000000000000000000000000000000000000000000836110bd565b503373ffffffffffffffffffffffffffffffffffffffff168273ffffffffffffffffffffffffffffffffffffffff167f1d27615a0838de020030dbe90d7e9494a650320137866148d401c71d357f3c3d60405160405180910390a35050565b60007f01ffc9a7000000000000000000000000000000000000000000000000000000007bffffffffffffffffffffffffffffffffffffffffffffffffffffffff1916827bffffffffffffffffffffffffffffffffffffffffffffffffffffffff1916149050919050565b6110ba816110b56112c2565b61133b565b50565b60006110c98383610b7b565b6111a357600160008085815260200190815260200160002060000160008473ffffffffffffffffffffffffffffffffffffffff1673ffffffffffffffffffffffffffffffffffffffff16815260200190815260200160002060006101000a81548160ff0219169083151502179055506111406112c2565b73ffffffffffffffffffffffffffffffffffffffff168273ffffffffffffffffffffffffffffffffffffffff16847f2f8788117e7eff1d82e926ec794901d17c78024a50270940304540a733656f0d60405160405180910390a4600190506111a8565b600090505b92915050565b6111b78261054b565b6111c0816110a9565b6111ca83836110bd565b50505050565b60006111dc8383610b7b565b156112b757600080600085815260200190815260200160002060000160008473ffffffffffffffffffffffffffffffffffffffff1673ffffffffffffffffffffffffffffffffffffffff16815260200190815260200160002060006101000a81548160ff0219169083151502179055506112546112c2565b73ffffffffffffffffffffffffffffffffffffffff168273ffffffffffffffffffffffffffffffffffffffff16847ff6391f5c32d9c69d2a47ea670b442974b53935d1edc7fd64eb21e047a839171b60405160405180910390a4600190506112bc565b600090505b92915050565b600033905090565b600260015403611306576040517f3ee5aeb500000000000000000000000000000000000000000000000000000000815260040160405180910390fd5b6002600181905550565b60018081905550565b6113228261054b565b61132b816110a9565b61133583836111d0565b50505050565b6113458282610b7b565b6113885780826040517fe2517d3f00000000000000000000000000000000000000000000000000000000815260040161137f929190611ac7565b60405180910390fd5b5050565b600080fd5b60007fffffffff0000000000000000000000000000000000000000000000000000000082169050919050565b6113c681611391565b81146113d157600080fd5b50565b6000813590506113e3816113bd565b92915050565b6000602082840312156113ff576113fe61138c565b5b600061140d848285016113d4565b91505092915050565b60008115159050919050565b61142b81611416565b82525050565b60006020820190506114466000830184611422565b92915050565b600073ffffffffffffffffffffffffffffffffffffffff82169050919050565b60006114778261144c565b9050919050565b6114878161146c565b811461149257600080fd5b50565b6000813590506114a48161147e565b92915050565b6000602082840312156114c0576114bf61138c565b5b60006114ce84828501611495565b91505092915050565b6000819050919050565b6114ea816114d7565b81146114f557600080fd5b50565b600081359050611507816114e1565b92915050565b6000602082840312156115235761152261138c565b5b6000611531848285016114f8565b91505092915050565b611543816114d7565b82525050565b600060208201905061155e600083018461153a565b92915050565b6000806040838503121561157b5761157a61138c565b5b6000611589858286016114f8565b925050602061159a85828601611495565b9150509250929050565b6000819050919050565b6115b7816115a4565b82525050565b60006020820190506115d260008301846115ae565b92915050565b600080604083850312156115ef576115ee61138c565b5b60006115fd85828601611495565b925050602061160e85828601611495565b9150509250929050565b600082825260208201905092915050565b7f4149206167656e7420616464726573732063616e6e6f74206265207a65726f00600082015250565b600061165f601f83611618565b915061166a82611629565b602082019050919050565b6000602082019050818103600083015261168e81611652565b9050919050565b7f4163636f756e742063616e6e6f74206265207a65726f20616464726573730000600082015250565b60006116cb601e83611618565b91506116d682611695565b602082019050919050565b600060208201905081810360008301526116fa816116be565b9050919050565b7f436f6e747261637420726f6c65732063616e6e6f74206265206368616e676564600082015250565b6000611737602083611618565b915061174282611701565b602082019050919050565b600060208201905081810360008301526117668161172a565b9050919050565b7f4d6f64657261746f7220616464726573732063616e6e6f74206265207a65726f600082015250565b60006117a3602083611618565b91506117ae8261176d565b602082019050919050565b600060208201905081810360008301526117d281611796565b9050919050565b7f436f6e747261637420697320616c726561647920696e697469616c697a656400600082015250565b600061180f601f83611618565b915061181a826117d9565b602082019050919050565b6000602082019050818103600083015261183e81611802565b9050919050565b7f536574746c656d656e7420616464726573732063616e6e6f74206265207a657260008201527f6f00000000000000000000000000000000000000000000000000000000000000602082015250565b60006118a1602183611618565b91506118ac82611845565b604082019050919050565b600060208201905081810360008301526118d081611894565b9050919050565b7f43757261746f7220726f6c652063616e6e6f74206265207265766f6b65640000600082015250565b600061190d601e83611618565b9150611918826118d7565b602082019050919050565b6000602082019050818103600083015261193c81611900565b9050919050565b7f436f6e747261637420726f6c65732063616e6e6f74206265207265766f6b656460008201527f206166746572206c6f636b696e67000000000000000000000000000000000000602082015250565b600061199f602e83611618565b91506119aa82611943565b604082019050919050565b600060208201905081810360008301526119ce81611992565b9050919050565b7f43757261746f7220616464726573732063616e6e6f74206265207a65726f0000600082015250565b6000611a0b601e83611618565b9150611a16826119d5565b602082019050919050565b60006020820190508181036000830152611a3a816119fe565b9050919050565b7f4e487b7100000000000000000000000000000000000000000000000000000000600052601160045260246000fd5b6000611a7b826115a4565b91507fffffffffffffffffffffffffffffffffffffffffffffffffffffffffffffffff8203611aad57611aac611a41565b5b600182019050919050565b611ac18161146c565b82525050565b6000604082019050611adc6000830185611ab8565b611ae9602083018461153a565b939250505056fea264697066735822122033659dbf27ae6922511c8d973af015f95cb75d055b2973cb2a3ebfa55186d46964736f6c634300081c0033",
  "linkReferences": {},
  "deployedLinkReferences": {}
}