{
  "_format": "hh-sol-artifact-1",
  "contractName": "CurateAIVote",
  "sourceName": "contracts/vote.sol",
  "abi": [
    {
      "inputs": [
        {
          "internalType": "address",
          "name": "_tokenAddress",
          "type": "address"
        },
        {
          "internalType": "address",
          "name": "_roleManager",
          "type": "address"
        },
        {
          "internalType": "address",
          "name": "_postContract",
          "type": "address"
        }
      ],
      "stateMutability": "nonpayable",
      "type": "constructor"
    },
    {
      "anonymous": false,
      "inputs": [
        {
          "indexed": true,
          "internalType": "uint256",
          "name": "postId",
          "type": "uint256"
        },
        {
          "indexed": true,
          "internalType": "address",
          "name": "voter",
          "type": "address"
        },
        {
          "indexed": false,
          "internalType": "uint256",
          "name": "amount",
          "type": "uint256"
        }
      ],
      "name": "Voted",
      "type": "event"
    },
    {
      "inputs": [],
      "name": "AI_AGENT_ROLE",
      "outputs": [
        {
          "internalType": "bytes32",
          "name": "",
          "type": "bytes32"
        }
      ],
      "stateMutability": "view",
      "type": "function"
    },
    {
      "inputs": [],
      "name": "CURATOR_ROLE",
      "outputs": [
        {
          "internalType": "bytes32",
          "name": "",
          "type": "bytes32"
        }
      ],
      "stateMutability": "view",
      "type": "function"
    },
    {
      "inputs": [],
      "name": "SETTLEMENT_ROLE",
      "outputs": [
        {
          "internalType": "bytes32",
          "name": "",
          "type": "bytes32"
        }
      ],
      "stateMutability": "view",
      "type": "function"
    },
    {
      "inputs": [],
      "name": "VOTES_PER_DAY_MULTIPLIER",
      "outputs": [
        {
          "internalType": "uint256",
          "name": "",
          "type": "uint256"
        }
      ],
      "stateMutability": "view",
      "type": "function"
    },
    {
      "inputs": [],
      "name": "VOTING_CONTRACT",
      "outputs": [
        {
          "internalType": "bytes32",
          "name": "",
          "type": "bytes32"
        }
      ],
      "stateMutability": "view",
      "type": "function"
    },
    {
      "inputs": [
        {
          "internalType": "uint256",
          "name": "postId",
          "type": "uint256"
        },
        {
          "internalType": "uint256",
          "name": "amount",
          "type": "uint256"
        }
      ],
      "name": "aiVote",
      "outputs": [],
      "stateMutability": "nonpayable",
      "type": "function"
    },
    {
      "inputs": [
        {
          "internalType": "address",
          "name": "user",
          "type": "address"
        }
      ],
      "name": "clearUserVoteDays",
      "outputs": [],
      "stateMutability": "nonpayable",
      "type": "function"
    },
    {
      "inputs": [
        {
          "internalType": "address",
          "name": "",
          "type": "address"
        },
        {
          "internalType": "uint256",
          "name": "",
          "type": "uint256"
        }
      ],
      "name": "dailyAuthorVotes",
      "outputs": [
        {
          "internalType": "uint256",
          "name": "",
          "type": "uint256"
        }
      ],
      "stateMutability": "view",
      "type": "function"
    },
    {
      "inputs": [
        {
          "internalType": "uint256",
          "name": "",
          "type": "uint256"
        },
        {
          "internalType": "uint256",
          "name": "",
          "type": "uint256"
        }
      ],
      "name": "dailyPostVotes",
      "outputs": [
        {
          "internalType": "uint256",
          "name": "",
          "type": "uint256"
        }
      ],
      "stateMutability": "view",
      "type": "function"
    },
    {
      "inputs": [
        {
          "internalType": "uint256",
          "name": "",
          "type": "uint256"
        }
      ],
      "name": "dailyVoteTotals",
      "outputs": [
        {
          "internalType": "uint256",
          "name": "",
          "type": "uint256"
        }
      ],
      "stateMutability": "view",
      "type": "function"
    },
    {
      "inputs": [
        {
          "internalType": "uint256",
          "name": "day",
          "type": "uint256"
        },
        {
          "internalType": "address",
          "name": "author",
          "type": "address"
        }
      ],
      "name": "getAuthorVotes",
      "outputs": [
        {
          "internalType": "uint256",
          "name": "",
          "type": "uint256"
        }
      ],
      "stateMutability": "view",
      "type": "function"
    },
    {
      "inputs": [
        {
          "internalType": "uint256",
          "name": "day",
          "type": "uint256"
        }
      ],
      "name": "getDailyTotalVotes",
      "outputs": [
        {
          "internalType": "uint256",
          "name": "",
          "type": "uint256"
        }
      ],
      "stateMutability": "view",
      "type": "function"
    },
    {
      "inputs": [],
      "name": "getTotalVotes",
      "outputs": [
        {
          "internalType": "uint256",
          "name": "",
          "type": "uint256"
        }
      ],
      "stateMutability": "view",
      "type": "function"
    },
    {
      "inputs": [
        {
          "internalType": "address",
          "name": "user",
          "type": "address"
        }
      ],
      "name": "getUserVoteDays",
      "outputs": [
        {
          "internalType": "uint256[]",
          "name": "",
          "type": "uint256[]"
        }
      ],
      "stateMutability": "view",
      "type": "function"
    },
    {
      "inputs": [
        {
          "internalType": "address",
          "name": "",
          "type": "address"
        }
      ],
      "name": "lastVoteResetTime",
      "outputs": [
        {
          "internalType": "uint256",
          "name": "",
          "type": "uint256"
        }
      ],
      "stateMutability": "view",
      "type": "function"
    },
    {
      "inputs": [],
      "name": "postContract",
      "outputs": [
        {
          "internalType": "contract ICurateAIPost",
          "name": "",
          "type": "address"
        }
      ],
      "stateMutability": "view",
      "type": "function"
    },
    {
      "inputs": [],
      "name": "roleManager",
      "outputs": [
        {
          "internalType": "contract IRoleManager",
          "name": "",
          "type": "address"
        }
      ],
      "stateMutability": "view",
      "type": "function"
    },
    {
      "inputs": [],
      "name": "token",
      "outputs": [
        {
          "internalType": "contract IContentMediaToken",
          "name": "",
          "type": "address"
        }
      ],
      "stateMutability": "view",
      "type": "function"
    },
    {
      "inputs": [
        {
          "internalType": "address",
          "name": "",
          "type": "address"
        },
        {
          "internalType": "uint256",
          "name": "",
          "type": "uint256"
        }
      ],
      "name": "userActiveDays",
      "outputs": [
        {
          "internalType": "uint256",
          "name": "",
          "type": "uint256"
        }
      ],
      "stateMutability": "view",
      "type": "function"
    },
    {
      "inputs": [
        {
          "internalType": "uint256",
          "name": "postId",
          "type": "uint256"
        },
        {
          "internalType": "uint256",
          "name": "amount",
          "type": "uint256"
        }
      ],
      "name": "vote",
      "outputs": [],
      "stateMutability": "nonpayable",
      "type": "function"
    },
    {
      "inputs": [
        {
          "internalType": "address",
          "name": "",
          "type": "address"
        }
      ],
      "name": "votesUsedToday",
      "outputs": [
        {
          "internalType": "uint256",
          "name": "",
          "type": "uint256"
        }
      ],
      "stateMutability": "view",
      "type": "function"
    }
  ],
  "bytecode": "0x608060405234801561001057600080fd5b50604051612913380380612913833981810160405281019061003291906102ae565b81600073ffffffffffffffffffffffffffffffffffffffff168173ffffffffffffffffffffffffffffffffffffffff16036100a2576040517f08c379a00000000000000000000000000000000000000000000000000000000081526004016100999061035e565b60405180910390fd5b806000806101000a81548173ffffffffffffffffffffffffffffffffffffffff021916908373ffffffffffffffffffffffffffffffffffffffff16021790555050600073ffffffffffffffffffffffffffffffffffffffff168373ffffffffffffffffffffffffffffffffffffffff1603610152576040517f08c379a0000000000000000000000000000000000000000000000000000000008152600401610149906103ca565b60405180910390fd5b600073ffffffffffffffffffffffffffffffffffffffff168173ffffffffffffffffffffffffffffffffffffffff16036101c1576040517f08c379a00000000000000000000000000000000000000000000000000000000081526004016101b890610436565b60405180910390fd5b82600160006101000a81548173ffffffffffffffffffffffffffffffffffffffff021916908373ffffffffffffffffffffffffffffffffffffffff16021790555080600260006101000a81548173ffffffffffffffffffffffffffffffffffffffff021916908373ffffffffffffffffffffffffffffffffffffffff160217905550505050610456565b600080fd5b600073ffffffffffffffffffffffffffffffffffffffff82169050919050565b600061027b82610250565b9050919050565b61028b81610270565b811461029657600080fd5b50565b6000815190506102a881610282565b92915050565b6000806000606084860312156102c7576102c661024b565b5b60006102d586828701610299565b93505060206102e686828701610299565b92505060406102f786828701610299565b9150509250925092565b600082825260208201905092915050565b7f496e76616c696420526f6c654d616e6167657220616464726573730000000000600082015250565b6000610348601b83610301565b915061035382610312565b602082019050919050565b600060208201905081810360008301526103778161033b565b9050919050565b7f496e76616c696420746f6b656e20616464726573730000000000000000000000600082015250565b60006103b4601583610301565b91506103bf8261037e565b602082019050919050565b600060208201905081810360008301526103e3816103a7565b9050919050565b7f496e76616c696420706f737420636f6e74726163742061646472657373000000600082015250565b6000610420601d83610301565b915061042b826103ea565b602082019050919050565b6000602082019050818103600083015261044f81610413565b9050919050565b6124ae806104656000396000f3fe608060405234801561001057600080fd5b50600436106101365760003560e01c806397b62a72116100b8578063ba9cf01d1161007c578063ba9cf01d14610377578063cb436d3f14610395578063df99b336146103c5578063f2fb16db146103e3578063f8a4e6e214610413578063fc0c546a1461042f57610136565b806397b62a72146102bf5780639a0e7d66146102dd5780639d4d3db7146102fb578063b384abef1461032b578063b6b730811461034757610136565b806329ddf49c116100ff57806329ddf49c1461020757806340f5fe2b146102375780634a2cfb54146102535780634ad65106146102715780636ebe8f991461028f57610136565b8062435da51461013b5780630706e5bd14610159578063173573e8146101895780631d148f55146101b957806325b8e7eb146101e9575b600080fd5b61014361044d565b60405161015091906118ab565b60405180910390f35b610173600480360381019061016e9190611918565b610471565b6040516101809190611a0d565b60405180910390f35b6101a3600480360381019061019e9190611a5b565b610508565b6040516101b09190611a97565b60405180910390f35b6101d360048036038101906101ce9190611ab2565b610520565b6040516101e09190611a97565b60405180910390f35b6101f1610551565b6040516101fe9190611b0b565b60405180910390f35b610221600480360381019061021c9190611a5b565b610575565b60405161022e9190611a97565b60405180910390f35b610251600480360381019061024c9190611918565b610592565b005b61025b6106dd565b6040516102689190611b0b565b60405180910390f35b610279610701565b6040516102869190611b47565b60405180910390f35b6102a960048036038101906102a49190611918565b610727565b6040516102b69190611a97565b60405180910390f35b6102c761073f565b6040516102d49190611b0b565b60405180910390f35b6102e5610763565b6040516102f29190611a97565b60405180910390f35b61031560048036038101906103109190611ab2565b61078c565b6040516103229190611a97565b60405180910390f35b61034560048036038101906103409190611b62565b6107b1565b005b610361600480360381019061035c9190611b62565b610f63565b60405161036e9190611a97565b60405180910390f35b61037f610f88565b60405161038c9190611b0b565b60405180910390f35b6103af60048036038101906103aa9190611ba2565b610fac565b6040516103bc9190611a97565b60405180910390f35b6103cd611007565b6040516103da9190611a97565b60405180910390f35b6103fd60048036038101906103f89190611918565b61100c565b60405161040a9190611a97565b60405180910390f35b61042d60048036038101906104289190611b62565b611024565b005b6104376117c8565b6040516104449190611c03565b60405180910390f35b60008054906101000a900473ffffffffffffffffffffffffffffffffffffffff1681565b6060600660008373ffffffffffffffffffffffffffffffffffffffff1673ffffffffffffffffffffffffffffffffffffffff1681526020019081526020016000208054806020026020016040519081016040528092919081815260200182805480156104fc57602002820191906000526020600020905b8154815260200190600101908083116104e8575b50505050509050919050565b60046020528060005260406000206000915090505481565b6006602052816000526040600020818154811061053c57600080fd5b90600052602060002001600091509150505481565b7ffaa623ff490ff9197b5ad863cd7f72b33e2e131994d09bd7260d7cd680faad7981565b600060046000838152602001908152602001600020549050919050565b7f300f9ae985dc711960f7a4d1dd013f9c19ecf40bff149522ab7523b2187a384660008054906101000a900473ffffffffffffffffffffffffffffffffffffffff1673ffffffffffffffffffffffffffffffffffffffff166391d1485482336040518363ffffffff1660e01b815260040161060e929190611c2d565b602060405180830381865afa15801561062b573d6000803e3d6000fd5b505050506040513d601f19601f8201168201806040525081019061064f9190611c8e565b61068e576040517f08c379a000000000000000000000000000000000000000000000000000000000815260040161068590611d3e565b60405180910390fd5b600660008373ffffffffffffffffffffffffffffffffffffffff1673ffffffffffffffffffffffffffffffffffffffff16815260200190815260200160002060006106d991906117ee565b5050565b7f850d585eb7f024ccee5e68e55f2c26cc72e1e6ee456acf62135757a5eb9d4a1081565b600260009054906101000a900473ffffffffffffffffffffffffffffffffffffffff1681565b60076020528060005260406000206000915090505481565b7f07777a76947b185654bacbede92fa7043b0ec4c08f225b10ec1e040f321897bb81565b60006004600062015180426107789190611dbc565b815260200190815260200160002054905090565b6005602052816000526040600020602052806000526040600020600091509150505481565b7ffaa623ff490ff9197b5ad863cd7f72b33e2e131994d09bd7260d7cd680faad7960008054906101000a900473ffffffffffffffffffffffffffffffffffffffff1673ffffffffffffffffffffffffffffffffffffffff166391d1485482336040518363ffffffff1660e01b815260040161082d929190611c2d565b602060405180830381865afa15801561084a573d6000803e3d6000fd5b505050506040513d601f19601f8201168201806040525081019061086e9190611c8e565b156108ae576040517f08c379a00000000000000000000000000000000000000000000000000000000081526004016108a590611e39565b60405180910390fd5b600260009054906101000a900473ffffffffffffffffffffffffffffffffffffffff1673ffffffffffffffffffffffffffffffffffffffff166309b3d75e6040518163ffffffff1660e01b8152600401602060405180830381865afa15801561091b573d6000803e3d6000fd5b505050506040513d601f19601f8201168201806040525081019061093f9190611e6e565b831115610981576040517f08c379a000000000000000000000000000000000000000000000000000000000815260040161097890611ee7565b60405180910390fd5b600082116109c4576040517f08c379a00000000000000000000000000000000000000000000000000000000081526004016109bb90611f53565b60405180910390fd5b62015180600760003373ffffffffffffffffffffffffffffffffffffffff1673ffffffffffffffffffffffffffffffffffffffff16815260200190815260200160002054610a129190611f73565b4210610aa2576000600860003373ffffffffffffffffffffffffffffffffffffffff1673ffffffffffffffffffffffffffffffffffffffff1681526020019081526020016000208190555042600760003373ffffffffffffffffffffffffffffffffffffffff1673ffffffffffffffffffffffffffffffffffffffff168152602001908152602001600020819055505b6000600160009054906101000a900473ffffffffffffffffffffffffffffffffffffffff1673ffffffffffffffffffffffffffffffffffffffff166370a08231336040518263ffffffff1660e01b8152600401610aff9190611fa7565b602060405180830381865afa158015610b1c573d6000803e3d6000fd5b505050506040513d601f19601f82011682018060405250810190610b409190611e6e565b6005610b4c9190611fc2565b90508083600860003373ffffffffffffffffffffffffffffffffffffffff1673ffffffffffffffffffffffffffffffffffffffff16815260200190815260200160002054610b9a9190611f73565b1115610bdb576040517f08c379a0000000000000000000000000000000000000000000000000000000008152600401610bd290612050565b60405180910390fd5b60006201518042610bec9190611dbc565b90506000600260009054906101000a900473ffffffffffffffffffffffffffffffffffffffff1673ffffffffffffffffffffffffffffffffffffffff16631d45cddc876040518263ffffffff1660e01b8152600401610c4b9190611a97565b600060405180830381865afa158015610c68573d6000803e3d6000fd5b505050506040513d6000823e3d601f19601f82011682018060405250810190610c919190612308565b9050600081602001519050600260009054906101000a900473ffffffffffffffffffffffffffffffffffffffff1673ffffffffffffffffffffffffffffffffffffffff16634ea002a788886040518363ffffffff1660e01b8152600401610cf9929190612351565b600060405180830381600087803b158015610d1357600080fd5b505af1158015610d27573d6000803e3d6000fd5b50505050856003600085815260200190815260200160002060008981526020019081526020016000206000828254610d5f9190611f73565b9250508190555085600460008581526020019081526020016000206000828254610d899190611f73565b9250508190555085600560008373ffffffffffffffffffffffffffffffffffffffff1673ffffffffffffffffffffffffffffffffffffffff16815260200190815260200160002060008581526020019081526020016000206000828254610df09190611f73565b9250508190555085600560008373ffffffffffffffffffffffffffffffffffffffff1673ffffffffffffffffffffffffffffffffffffffff16815260200190815260200160002060008581526020019081526020016000205403610eb557600660008273ffffffffffffffffffffffffffffffffffffffff1673ffffffffffffffffffffffffffffffffffffffff1681526020019081526020016000208390806001815401808255809150506001900390600052602060002001600090919091909150555b85600860003373ffffffffffffffffffffffffffffffffffffffff1673ffffffffffffffffffffffffffffffffffffffff1681526020019081526020016000206000828254610f049190611f73565b925050819055503373ffffffffffffffffffffffffffffffffffffffff16877f1abe610cf2bf87e57dcc1181fcf5ac0934e843d8344ab9eed6e86c799f62585e88604051610f529190611a97565b60405180910390a350505050505050565b6003602052816000526040600020602052806000526040600020600091509150505481565b7f300f9ae985dc711960f7a4d1dd013f9c19ecf40bff149522ab7523b2187a384681565b6000600560008373ffffffffffffffffffffffffffffffffffffffff1673ffffffffffffffffffffffffffffffffffffffff168152602001908152602001600020600084815260200190815260200160002054905092915050565b600581565b60086020528060005260406000206000915090505481565b7ffaa623ff490ff9197b5ad863cd7f72b33e2e131994d09bd7260d7cd680faad7960008054906101000a900473ffffffffffffffffffffffffffffffffffffffff1673ffffffffffffffffffffffffffffffffffffffff166391d1485482336040518363ffffffff1660e01b81526004016110a0929190611c2d565b602060405180830381865afa1580156110bd573d6000803e3d6000fd5b505050506040513d601f19601f820116820180604052508101906110e19190611c8e565b611120576040517f08c379a000000000000000000000000000000000000000000000000000000000815260040161111790611d3e565b60405180910390fd5b600260009054906101000a900473ffffffffffffffffffffffffffffffffffffffff1673ffffffffffffffffffffffffffffffffffffffff166309b3d75e6040518163ffffffff1660e01b8152600401602060405180830381865afa15801561118d573d6000803e3d6000fd5b505050506040513d601f19601f820116820180604052508101906111b19190611e6e565b8311156111f3576040517f08c379a00000000000000000000000000000000000000000000000000000000081526004016111ea90611ee7565b60405180910390fd5b60008211611236576040517f08c379a000000000000000000000000000000000000000000000000000000000815260040161122d90611f53565b60405180910390fd5b600260009054906101000a900473ffffffffffffffffffffffffffffffffffffffff1673ffffffffffffffffffffffffffffffffffffffff16631d45cddc846040518263ffffffff1660e01b81526004016112919190611a97565b600060405180830381865afa1580156112ae573d6000803e3d6000fd5b505050506040513d6000823e3d601f19601f820116820180604052508101906112d79190612308565b61010001511561131c576040517f08c379a0000000000000000000000000000000000000000000000000000000008152600401611313906123c6565b60405180910390fd5b62015180600260009054906101000a900473ffffffffffffffffffffffffffffffffffffffff1673ffffffffffffffffffffffffffffffffffffffff16631d45cddc856040518263ffffffff1660e01b815260040161137b9190611a97565b600060405180830381865afa158015611398573d6000803e3d6000fd5b505050506040513d6000823e3d601f19601f820116820180604052508101906113c19190612308565b60a001516113cf9190611f73565b4210611410576040517f08c379a000000000000000000000000000000000000000000000000000000000815260040161140790612458565b60405180910390fd5b600062015180426114219190611dbc565b90506000600260009054906101000a900473ffffffffffffffffffffffffffffffffffffffff1673ffffffffffffffffffffffffffffffffffffffff16631d45cddc866040518263ffffffff1660e01b81526004016114809190611a97565b600060405180830381865afa15801561149d573d6000803e3d6000fd5b505050506040513d6000823e3d601f19601f820116820180604052508101906114c69190612308565b602001519050600260009054906101000a900473ffffffffffffffffffffffffffffffffffffffff1673ffffffffffffffffffffffffffffffffffffffff16634ea002a786866040518363ffffffff1660e01b8152600401611529929190612351565b600060405180830381600087803b15801561154357600080fd5b505af1158015611557573d6000803e3d6000fd5b5050505083600360008481526020019081526020016000206000878152602001908152602001600020600082825461158f9190611f73565b92505081905550836004600084815260200190815260200160002060008282546115b99190611f73565b9250508190555083600560008373ffffffffffffffffffffffffffffffffffffffff1673ffffffffffffffffffffffffffffffffffffffff168152602001908152602001600020600084815260200190815260200160002060008282546116209190611f73565b92505081905550600260009054906101000a900473ffffffffffffffffffffffffffffffffffffffff1673ffffffffffffffffffffffffffffffffffffffff1663ae96db0c866040518263ffffffff1660e01b81526004016116829190611a97565b600060405180830381600087803b15801561169c57600080fd5b505af11580156116b0573d6000803e3d6000fd5b5050505083600560008373ffffffffffffffffffffffffffffffffffffffff1673ffffffffffffffffffffffffffffffffffffffff1681526020019081526020016000206000848152602001908152602001600020540361177257600660008273ffffffffffffffffffffffffffffffffffffffff1673ffffffffffffffffffffffffffffffffffffffff1681526020019081526020016000208290806001815401808255809150506001900390600052602060002001600090919091909150555b3373ffffffffffffffffffffffffffffffffffffffff16857f1abe610cf2bf87e57dcc1181fcf5ac0934e843d8344ab9eed6e86c799f62585e866040516117b99190611a97565b60405180910390a35050505050565b600160009054906101000a900473ffffffffffffffffffffffffffffffffffffffff1681565b508054600082559060005260206000209081019061180c919061180f565b50565b5b80821115611828576000816000905550600101611810565b5090565b600073ffffffffffffffffffffffffffffffffffffffff82169050919050565b6000819050919050565b600061187161186c6118678461182c565b61184c565b61182c565b9050919050565b600061188382611856565b9050919050565b600061189582611878565b9050919050565b6118a58161188a565b82525050565b60006020820190506118c0600083018461189c565b92915050565b6000604051905090565b600080fd5b600080fd5b60006118e58261182c565b9050919050565b6118f5816118da565b811461190057600080fd5b50565b600081359050611912816118ec565b92915050565b60006020828403121561192e5761192d6118d0565b5b600061193c84828501611903565b91505092915050565b600081519050919050565b600082825260208201905092915050565b6000819050602082019050919050565b6000819050919050565b61198481611971565b82525050565b6000611996838361197b565b60208301905092915050565b6000602082019050919050565b60006119ba82611945565b6119c48185611950565b93506119cf83611961565b8060005b83811015611a005781516119e7888261198a565b97506119f2836119a2565b9250506001810190506119d3565b5085935050505092915050565b60006020820190508181036000830152611a2781846119af565b905092915050565b611a3881611971565b8114611a4357600080fd5b50565b600081359050611a5581611a2f565b92915050565b600060208284031215611a7157611a706118d0565b5b6000611a7f84828501611a46565b91505092915050565b611a9181611971565b82525050565b6000602082019050611aac6000830184611a88565b92915050565b60008060408385031215611ac957611ac86118d0565b5b6000611ad785828601611903565b9250506020611ae885828601611a46565b9150509250929050565b6000819050919050565b611b0581611af2565b82525050565b6000602082019050611b206000830184611afc565b92915050565b6000611b3182611878565b9050919050565b611b4181611b26565b82525050565b6000602082019050611b5c6000830184611b38565b92915050565b60008060408385031215611b7957611b786118d0565b5b6000611b8785828601611a46565b9250506020611b9885828601611a46565b9150509250929050565b60008060408385031215611bb957611bb86118d0565b5b6000611bc785828601611a46565b9250506020611bd885828601611903565b9150509250929050565b6000611bed82611878565b9050919050565b611bfd81611be2565b82525050565b6000602082019050611c186000830184611bf4565b92915050565b611c27816118da565b82525050565b6000604082019050611c426000830185611afc565b611c4f6020830184611c1e565b9392505050565b60008115159050919050565b611c6b81611c56565b8114611c7657600080fd5b50565b600081519050611c8881611c62565b92915050565b600060208284031215611ca457611ca36118d0565b5b6000611cb284828501611c79565b91505092915050565b600082825260208201905092915050565b7f43616c6c657220646f6573206e6f74206861766520726571756972656420726f60008201527f6c65000000000000000000000000000000000000000000000000000000000000602082015250565b6000611d28602283611cbb565b9150611d3382611ccc565b604082019050919050565b60006020820190508181036000830152611d5781611d1b565b9050919050565b7f4e487b7100000000000000000000000000000000000000000000000000000000600052601260045260246000fd5b7f4e487b7100000000000000000000000000000000000000000000000000000000600052601160045260246000fd5b6000611dc782611971565b9150611dd283611971565b925082611de257611de1611d5e565b5b828204905092915050565b7f4149206167656e742063616e277420766f7465206469726563746c7900000000600082015250565b6000611e23601c83611cbb565b9150611e2e82611ded565b602082019050919050565b60006020820190508181036000830152611e5281611e16565b9050919050565b600081519050611e6881611a2f565b92915050565b600060208284031215611e8457611e836118d0565b5b6000611e9284828501611e59565b91505092915050565b7f506f737420646f6573206e6f7420657869737400000000000000000000000000600082015250565b6000611ed1601383611cbb565b9150611edc82611e9b565b602082019050919050565b60006020820190508181036000830152611f0081611ec4565b9050919050565b7f416d6f756e74206d7573742062652067726561746572207468616e2030000000600082015250565b6000611f3d601d83611cbb565b9150611f4882611f07565b602082019050919050565b60006020820190508181036000830152611f6c81611f30565b9050919050565b6000611f7e82611971565b9150611f8983611971565b9250828201905080821115611fa157611fa0611d8d565b5b92915050565b6000602082019050611fbc6000830184611c1e565b92915050565b6000611fcd82611971565b9150611fd883611971565b9250828202611fe681611971565b91508282048414831517611ffd57611ffc611d8d565b5b5092915050565b7f45786365656473206461696c7920766f7465206c696d69740000000000000000600082015250565b600061203a601883611cbb565b915061204582612004565b602082019050919050565b600060208201905081810360008301526120698161202d565b9050919050565b600080fd5b6000601f19601f8301169050919050565b7f4e487b7100000000000000000000000000000000000000000000000000000000600052604160045260246000fd5b6120be82612075565b810181811067ffffffffffffffff821117156120dd576120dc612086565b5b80604052505050565b60006120f06118c6565b90506120fc82826120b5565b919050565b600080fd5b600081519050612115816118ec565b92915050565b600080fd5b600080fd5b600067ffffffffffffffff8211156121405761213f612086565b5b61214982612075565b9050602081019050919050565b60005b83811015612174578082015181840152602081019050612159565b60008484015250505050565b600061219361218e84612125565b6120e6565b9050828152602081018484840111156121af576121ae612120565b5b6121ba848285612156565b509392505050565b600082601f8301126121d7576121d661211b565b5b81516121e7848260208601612180565b91505092915050565b6000610120828403121561220757612206612070565b5b6122126101206120e6565b9050600061222284828501611e59565b600083015250602061223684828501612106565b602083015250604082015167ffffffffffffffff81111561225a57612259612101565b5b612266848285016121c2565b604083015250606061227a84828501611e59565b606083015250608061228e84828501611e59565b60808301525060a06122a284828501611e59565b60a08301525060c082015167ffffffffffffffff8111156122c6576122c5612101565b5b6122d2848285016121c2565b60c08301525060e06122e684828501611c79565b60e0830152506101006122fb84828501611c79565b6101008301525092915050565b60006020828403121561231e5761231d6118d0565b5b600082015167ffffffffffffffff81111561233c5761233b6118d5565b5b612348848285016121f0565b91505092915050565b60006040820190506123666000830185611a88565b6123736020830184611a88565b9392505050565b7f41492063616e206f6e6c7920766f7465206f6e63652070657220706f73740000600082015250565b60006123b0601e83611cbb565b91506123bb8261237a565b602082019050919050565b600060208201905081810360008301526123df816123a3565b9050919050565b7f41492063616e206f6e6c7920766f7465206f6e2074686520666972737420646160008201527f7900000000000000000000000000000000000000000000000000000000000000602082015250565b6000612442602183611cbb565b915061244d826123e6565b604082019050919050565b6000602082019050818103600083015261247181612435565b905091905056fea264697066735822122012c9198735c32a303026cc8b1cd36d36a0cd50d80f2c3360911d674d2042109964736f6c634300081c0033",
  "linkReferences": {},
  "deployedLinkReferences": {}
}