{
  "_format": "hh-sol-artifact-1",
  "contractName": "CurateAIPost",
  "sourceName": "contracts/post.sol",
  "abi": [
    {
      "inputs": [
        {
          "internalType": "address",
          "name": "_roleManager",
          "type": "address"
        }
      ],
      "stateMutability": "nonpayable",
      "type": "constructor"
    },
    {
      "anonymous": false,
      "inputs": [
        {
          "indexed": true,
          "internalType": "uint256",
          "name": "id",
          "type": "uint256"
        },
        {
          "indexed": true,
          "internalType": "address",
          "name": "author",
          "type": "address"
        },
        {
          "indexed": false,
          "internalType": "string",
          "name": "contentHash",
          "type": "string"
        },
        {
          "indexed": false,
          "internalType": "string",
          "name": "tags",
          "type": "string"
        }
      ],
      "name": "PostCreated",
      "type": "event"
    },
    {
      "inputs": [],
      "name": "AI_AGENT_ROLE",
      "outputs": [
        {
          "internalType": "bytes32",
          "name": "",
          "type": "bytes32"
        }
      ],
      "stateMutability": "view",
      "type": "function"
    },
    {
      "inputs": [],
      "name": "CURATOR_ROLE",
      "outputs": [
        {
          "internalType": "bytes32",
          "name": "",
          "type": "bytes32"
        }
      ],
      "stateMutability": "view",
      "type": "function"
    },
    {
      "inputs": [],
      "name": "SETTLEMENT_ROLE",
      "outputs": [
        {
          "internalType": "bytes32",
          "name": "",
          "type": "bytes32"
        }
      ],
      "stateMutability": "view",
      "type": "function"
    },
    {
      "inputs": [],
      "name": "VOTING_CONTRACT",
      "outputs": [
        {
          "internalType": "bytes32",
          "name": "",
          "type": "bytes32"
        }
      ],
      "stateMutability": "view",
      "type": "function"
    },
    {
      "inputs": [
        {
          "internalType": "string",
          "name": "contentHash",
          "type": "string"
        },
        {
          "internalType": "string",
          "name": "tags",
          "type": "string"
        }
      ],
      "name": "createPost",
      "outputs": [],
      "stateMutability": "nonpayable",
      "type": "function"
    },
    {
      "inputs": [
        {
          "internalType": "uint256",
          "name": "postId",
          "type": "uint256"
        }
      ],
      "name": "getPostScore",
      "outputs": [
        {
          "internalType": "uint256",
          "name": "",
          "type": "uint256"
        }
      ],
      "stateMutability": "view",
      "type": "function"
    },
    {
      "inputs": [
        {
          "internalType": "uint256",
          "name": "postId",
          "type": "uint256"
        }
      ],
      "name": "getPosts",
      "outputs": [
        {
          "components": [
            {
              "internalType": "uint256",
              "name": "id",
              "type": "uint256"
            },
            {
              "internalType": "address",
              "name": "author",
              "type": "address"
            },
            {
              "internalType": "string",
              "name": "contentHash",
              "type": "string"
            },
            {
              "internalType": "uint256",
              "name": "totalScore",
              "type": "uint256"
            },
            {
              "internalType": "uint256",
              "name": "claimedScore",
              "type": "uint256"
            },
            {
              "internalType": "uint256",
              "name": "createdAt",
              "type": "uint256"
            },
            {
              "internalType": "string",
              "name": "tags",
              "type": "string"
            },
            {
              "internalType": "bool",
              "name": "newVote",
              "type": "bool"
            },
            {
              "internalType": "bool",
              "name": "aiVoted",
              "type": "bool"
            }
          ],
          "internalType": "struct CurateAIPost.Post",
          "name": "post",
          "type": "tuple"
        }
      ],
      "stateMutability": "view",
      "type": "function"
    },
    {
      "inputs": [],
      "name": "postCounter",
      "outputs": [
        {
          "internalType": "uint256",
          "name": "",
          "type": "uint256"
        }
      ],
      "stateMutability": "view",
      "type": "function"
    },
    {
      "inputs": [
        {
          "internalType": "uint256",
          "name": "",
          "type": "uint256"
        }
      ],
      "name": "posts",
      "outputs": [
        {
          "internalType": "uint256",
          "name": "id",
          "type": "uint256"
        },
        {
          "internalType": "address",
          "name": "author",
          "type": "address"
        },
        {
          "internalType": "string",
          "name": "contentHash",
          "type": "string"
        },
        {
          "internalType": "uint256",
          "name": "totalScore",
          "type": "uint256"
        },
        {
          "internalType": "uint256",
          "name": "claimedScore",
          "type": "uint256"
        },
        {
          "internalType": "uint256",
          "name": "createdAt",
          "type": "uint256"
        },
        {
          "internalType": "string",
          "name": "tags",
          "type": "string"
        },
        {
          "internalType": "bool",
          "name": "newVote",
          "type": "bool"
        },
        {
          "internalType": "bool",
          "name": "aiVoted",
          "type": "bool"
        }
      ],
      "stateMutability": "view",
      "type": "function"
    },
    {
      "inputs": [],
      "name": "roleManager",
      "outputs": [
        {
          "internalType": "contract IRoleManager",
          "name": "",
          "type": "address"
        }
      ],
      "stateMutability": "view",
      "type": "function"
    },
    {
      "inputs": [
        {
          "internalType": "uint256",
          "name": "postId",
          "type": "uint256"
        }
      ],
      "name": "setAIVoted",
      "outputs": [],
      "stateMutability": "nonpayable",
      "type": "function"
    },
    {
      "inputs": [
        {
          "internalType": "uint256",
          "name": "postId",
          "type": "uint256"
        },
        {
          "internalType": "uint256",
          "name": "amount",
          "type": "uint256"
        }
      ],
      "name": "setPostScore",
      "outputs": [],
      "stateMutability": "nonpayable",
      "type": "function"
    }
  ],
  "bytecode": "0x608060405234801561001057600080fd5b50604051611ae9380380611ae98339818101604052810190610032919061014c565b80600073ffffffffffffffffffffffffffffffffffffffff168173ffffffffffffffffffffffffffffffffffffffff16036100a2576040517f08c379a0000000000000000000000000000000000000000000000000000000008152600401610099906101d6565b60405180910390fd5b806000806101000a81548173ffffffffffffffffffffffffffffffffffffffff021916908373ffffffffffffffffffffffffffffffffffffffff16021790555050506101f6565b600080fd5b600073ffffffffffffffffffffffffffffffffffffffff82169050919050565b6000610119826100ee565b9050919050565b6101298161010e565b811461013457600080fd5b50565b60008151905061014681610120565b92915050565b600060208284031215610162576101616100e9565b5b600061017084828501610137565b91505092915050565b600082825260208201905092915050565b7f496e76616c696420526f6c654d616e6167657220616464726573730000000000600082015250565b60006101c0601b83610179565b91506101cb8261018a565b602082019050919050565b600060208201905081810360008301526101ef816101b3565b9050919050565b6118e4806102056000396000f3fe608060405234801561001057600080fd5b50600436106100b35760003560e01c80634a2cfb54116100715780634a2cfb54146101965780634ea002a7146101b45780635a26f5b3146101d057806397b62a7214610200578063ae96db0c1461021e578063ba9cf01d1461023a576100b3565b8062435da5146100b857806309b3d75e146100d65780630b1e7f83146100f45780631d45cddc1461012c57806325b8e7eb1461015c578063392338f51461017a575b600080fd5b6100c0610258565b6040516100cd9190610e31565b60405180910390f35b6100de61027c565b6040516100eb9190610e65565b60405180910390f35b61010e60048036038101906101099190610eb6565b610282565b60405161012399989796959493929190610faf565b60405180910390f35b61014660048036038101906101419190610eb6565b61041a565b604051610153919061118d565b60405180910390f35b610164610620565b60405161017191906111c8565b60405180910390f35b610194600480360381019061018f9190611248565b610644565b005b61019e610992565b6040516101ab91906111c8565b60405180910390f35b6101ce60048036038101906101c991906112c9565b6109b6565b005b6101ea60048036038101906101e59190610eb6565b610b64565b6040516101f79190610e65565b60405180910390f35b610208610b84565b60405161021591906111c8565b60405180910390f35b61023860048036038101906102339190610eb6565b610ba8565b005b610242610d28565b60405161024f91906111c8565b60405180910390f35b60008054906101000a900473ffffffffffffffffffffffffffffffffffffffff1681565b60015481565b60026020528060005260406000206000915090508060000154908060010160009054906101000a900473ffffffffffffffffffffffffffffffffffffffff16908060020180546102d190611338565b80601f01602080910402602001604051908101604052809291908181526020018280546102fd90611338565b801561034a5780601f1061031f5761010080835404028352916020019161034a565b820191906000526020600020905b81548152906001019060200180831161032d57829003601f168201915b50505050509080600301549080600401549080600501549080600601805461037190611338565b80601f016020809104026020016040519081016040528092919081815260200182805461039d90611338565b80156103ea5780601f106103bf576101008083540402835291602001916103ea565b820191906000526020600020905b8154815290600101906020018083116103cd57829003601f168201915b5050505050908060070160009054906101000a900460ff16908060070160019054906101000a900460ff16905089565b610422610d4c565b6002600083815260200190815260200160002060405180610120016040529081600082015481526020016001820160009054906101000a900473ffffffffffffffffffffffffffffffffffffffff1673ffffffffffffffffffffffffffffffffffffffff1673ffffffffffffffffffffffffffffffffffffffff1681526020016002820180546104b190611338565b80601f01602080910402602001604051908101604052809291908181526020018280546104dd90611338565b801561052a5780601f106104ff5761010080835404028352916020019161052a565b820191906000526020600020905b81548152906001019060200180831161050d57829003601f168201915b5050505050815260200160038201548152602001600482015481526020016005820154815260200160068201805461056190611338565b80601f016020809104026020016040519081016040528092919081815260200182805461058d90611338565b80156105da5780601f106105af576101008083540402835291602001916105da565b820191906000526020600020905b8154815290600101906020018083116105bd57829003601f168201915b505050505081526020016007820160009054906101000a900460ff161515151581526020016007820160019054906101000a900460ff1615151515815250509050919050565b7ffaa623ff490ff9197b5ad863cd7f72b33e2e131994d09bd7260d7cd680faad7981565b7f850d585eb7f024ccee5e68e55f2c26cc72e1e6ee456acf62135757a5eb9d4a1060008054906101000a900473ffffffffffffffffffffffffffffffffffffffff1673ffffffffffffffffffffffffffffffffffffffff166391d1485482336040518363ffffffff1660e01b81526004016106c0929190611369565b602060405180830381865afa1580156106dd573d6000803e3d6000fd5b505050506040513d601f19601f8201168201806040525081019061070191906113be565b610740576040517f08c379a00000000000000000000000000000000000000000000000000000000081526004016107379061145d565b60405180910390fd5b60016000815480929190610753906114ac565b919050555060405180610120016040528060015481526020013373ffffffffffffffffffffffffffffffffffffffff16815260200186868080601f016020809104026020016040519081016040528093929190818152602001838380828437600081840152601f19601f820116905080830192505050505050508152602001600081526020016000815260200142815260200184848080601f016020809104026020016040519081016040528093929190818152602001838380828437600081840152601f19601f820116905080830192505050505050508152602001600015158152602001600015158152506002600060015481526020019081526020016000206000820151816000015560208201518160010160006101000a81548173ffffffffffffffffffffffffffffffffffffffff021916908373ffffffffffffffffffffffffffffffffffffffff16021790555060408201518160020190816108bb91906116c5565b50606082015181600301556080820151816004015560a0820151816005015560c08201518160060190816108ef91906116c5565b5060e08201518160070160006101000a81548160ff0219169083151502179055506101008201518160070160016101000a81548160ff0219169083151502179055509050503373ffffffffffffffffffffffffffffffffffffffff166001547f5475621b07408f75d49c828caa5aeacb3a5e98d3497e75730dc184677504401c8787878760405161098394939291906117d3565b60405180910390a35050505050565b7f850d585eb7f024ccee5e68e55f2c26cc72e1e6ee456acf62135757a5eb9d4a1081565b7f07777a76947b185654bacbede92fa7043b0ec4c08f225b10ec1e040f321897bb60008054906101000a900473ffffffffffffffffffffffffffffffffffffffff1673ffffffffffffffffffffffffffffffffffffffff166391d1485482336040518363ffffffff1660e01b8152600401610a32929190611369565b602060405180830381865afa158015610a4f573d6000803e3d6000fd5b505050506040513d601f19601f82011682018060405250810190610a7391906113be565b610ab2576040517f08c379a0000000000000000000000000000000000000000000000000000000008152600401610aa99061145d565b60405180910390fd5b600083118015610ac457506001548311155b610b03576040517f08c379a0000000000000000000000000000000000000000000000000000000008152600401610afa9061185a565b60405180910390fd5b81600260008581526020019081526020016000206003016000828254610b29919061187a565b9250508190555060016002600085815260200190815260200160002060070160006101000a81548160ff021916908315150217905550505050565b600060026000838152602001908152602001600020600301549050919050565b7f07777a76947b185654bacbede92fa7043b0ec4c08f225b10ec1e040f321897bb81565b7f07777a76947b185654bacbede92fa7043b0ec4c08f225b10ec1e040f321897bb60008054906101000a900473ffffffffffffffffffffffffffffffffffffffff1673ffffffffffffffffffffffffffffffffffffffff166391d1485482336040518363ffffffff1660e01b8152600401610c24929190611369565b602060405180830381865afa158015610c41573d6000803e3d6000fd5b505050506040513d601f19601f82011682018060405250810190610c6591906113be565b610ca4576040517f08c379a0000000000000000000000000000000000000000000000000000000008152600401610c9b9061145d565b60405180910390fd5b600082118015610cb657506001548211155b610cf5576040517f08c379a0000000000000000000000000000000000000000000000000000000008152600401610cec9061185a565b60405180910390fd5b60016002600084815260200190815260200160002060070160016101000a81548160ff0219169083151502179055505050565b7f300f9ae985dc711960f7a4d1dd013f9c19ecf40bff149522ab7523b2187a384681565b60405180610120016040528060008152602001600073ffffffffffffffffffffffffffffffffffffffff16815260200160608152602001600081526020016000815260200160008152602001606081526020016000151581526020016000151581525090565b600073ffffffffffffffffffffffffffffffffffffffff82169050919050565b6000819050919050565b6000610df7610df2610ded84610db2565b610dd2565b610db2565b9050919050565b6000610e0982610ddc565b9050919050565b6000610e1b82610dfe565b9050919050565b610e2b81610e10565b82525050565b6000602082019050610e466000830184610e22565b92915050565b6000819050919050565b610e5f81610e4c565b82525050565b6000602082019050610e7a6000830184610e56565b92915050565b600080fd5b600080fd5b610e9381610e4c565b8114610e9e57600080fd5b50565b600081359050610eb081610e8a565b92915050565b600060208284031215610ecc57610ecb610e80565b5b6000610eda84828501610ea1565b91505092915050565b6000610eee82610db2565b9050919050565b610efe81610ee3565b82525050565b600081519050919050565b600082825260208201905092915050565b60005b83811015610f3e578082015181840152602081019050610f23565b60008484015250505050565b6000601f19601f8301169050919050565b6000610f6682610f04565b610f708185610f0f565b9350610f80818560208601610f20565b610f8981610f4a565b840191505092915050565b60008115159050919050565b610fa981610f94565b82525050565b600061012082019050610fc5600083018c610e56565b610fd2602083018b610ef5565b8181036040830152610fe4818a610f5b565b9050610ff36060830189610e56565b6110006080830188610e56565b61100d60a0830187610e56565b81810360c083015261101f8186610f5b565b905061102e60e0830185610fa0565b61103c610100830184610fa0565b9a9950505050505050505050565b61105381610e4c565b82525050565b61106281610ee3565b82525050565b600082825260208201905092915050565b600061108482610f04565b61108e8185611068565b935061109e818560208601610f20565b6110a781610f4a565b840191505092915050565b6110bb81610f94565b82525050565b6000610120830160008301516110da600086018261104a565b5060208301516110ed6020860182611059565b50604083015184820360408601526111058282611079565b915050606083015161111a606086018261104a565b50608083015161112d608086018261104a565b5060a083015161114060a086018261104a565b5060c083015184820360c08601526111588282611079565b91505060e083015161116d60e08601826110b2565b506101008301516111826101008601826110b2565b508091505092915050565b600060208201905081810360008301526111a781846110c1565b905092915050565b6000819050919050565b6111c2816111af565b82525050565b60006020820190506111dd60008301846111b9565b92915050565b600080fd5b600080fd5b600080fd5b60008083601f840112611208576112076111e3565b5b8235905067ffffffffffffffff811115611225576112246111e8565b5b602083019150836001820283011115611241576112406111ed565b5b9250929050565b6000806000806040858703121561126257611261610e80565b5b600085013567ffffffffffffffff8111156112805761127f610e85565b5b61128c878288016111f2565b9450945050602085013567ffffffffffffffff8111156112af576112ae610e85565b5b6112bb878288016111f2565b925092505092959194509250565b600080604083850312156112e0576112df610e80565b5b60006112ee85828601610ea1565b92505060206112ff85828601610ea1565b9150509250929050565b7f4e487b7100000000000000000000000000000000000000000000000000000000600052602260045260246000fd5b6000600282049050600182168061135057607f821691505b60208210810361136357611362611309565b5b50919050565b600060408201905061137e60008301856111b9565b61138b6020830184610ef5565b9392505050565b61139b81610f94565b81146113a657600080fd5b50565b6000815190506113b881611392565b92915050565b6000602082840312156113d4576113d3610e80565b5b60006113e2848285016113a9565b91505092915050565b7f43616c6c657220646f6573206e6f74206861766520726571756972656420726f60008201527f6c65000000000000000000000000000000000000000000000000000000000000602082015250565b6000611447602283610f0f565b9150611452826113eb565b604082019050919050565b600060208201905081810360008301526114768161143a565b9050919050565b7f4e487b7100000000000000000000000000000000000000000000000000000000600052601160045260246000fd5b60006114b782610e4c565b91507fffffffffffffffffffffffffffffffffffffffffffffffffffffffffffffffff82036114e9576114e861147d565b5b600182019050919050565b7f4e487b7100000000000000000000000000000000000000000000000000000000600052604160045260246000fd5b60008190508160005260206000209050919050565b60006020601f8301049050919050565b600082821b905092915050565b6000600883026115857fffffffffffffffffffffffffffffffffffffffffffffffffffffffffffffffff82611548565b61158f8683611548565b95508019841693508086168417925050509392505050565b60006115c26115bd6115b884610e4c565b610dd2565b610e4c565b9050919050565b6000819050919050565b6115dc836115a7565b6115f06115e8826115c9565b848454611555565b825550505050565b600090565b6116056115f8565b6116108184846115d3565b505050565b5b81811015611634576116296000826115fd565b600181019050611616565b5050565b601f8211156116795761164a81611523565b61165384611538565b81016020851015611662578190505b61167661166e85611538565b830182611615565b50505b505050565b600082821c905092915050565b600061169c6000198460080261167e565b1980831691505092915050565b60006116b5838361168b565b9150826002028217905092915050565b6116ce82610f04565b67ffffffffffffffff8111156116e7576116e66114f4565b5b6116f18254611338565b6116fc828285611638565b600060209050601f83116001811461172f576000841561171d578287015190505b61172785826116a9565b86555061178f565b601f19841661173d86611523565b60005b8281101561176557848901518255600182019150602085019450602081019050611740565b86831015611782578489015161177e601f89168261168b565b8355505b6001600288020188555050505b505050505050565b82818337600083830152505050565b60006117b28385610f0f565b93506117bf838584611797565b6117c883610f4a565b840190509392505050565b600060408201905081810360008301526117ee8186886117a6565b905081810360208301526118038184866117a6565b905095945050505050565b7f496e76616c696420706f73742049440000000000000000000000000000000000600082015250565b6000611844600f83610f0f565b915061184f8261180e565b602082019050919050565b6000602082019050818103600083015261187381611837565b9050919050565b600061188582610e4c565b915061189083610e4c565b92508282019050808211156118a8576118a761147d565b5b9291505056fea264697066735822122051f7d1291137fea4c78cfdcc8bd497c3f4310635e3c87772d16d2d75bb0c56ad64736f6c634300081c0033",
  "linkReferences": {},
  "deployedLinkReferences": {}
}