{
  "_format": "hh-sol-artifact-1",
  "contractName": "CurateAIToken",
  "sourceName": "contracts/token.sol",
  "abi": [
    {
      "inputs": [
        {
          "internalType": "address",
          "name": "_roleManager",
          "type": "address"
        }
      ],
      "stateMutability": "nonpayable",
      "type": "constructor"
    },
    {
      "inputs": [
        {
          "internalType": "address",
          "name": "spender",
          "type": "address"
        },
        {
          "internalType": "uint256",
          "name": "allowance",
          "type": "uint256"
        },
        {
          "internalType": "uint256",
          "name": "needed",
          "type": "uint256"
        }
      ],
      "name": "ERC20InsufficientAllowance",
      "type": "error"
    },
    {
      "inputs": [
        {
          "internalType": "address",
          "name": "sender",
          "type": "address"
        },
        {
          "internalType": "uint256",
          "name": "balance",
          "type": "uint256"
        },
        {
          "internalType": "uint256",
          "name": "needed",
          "type": "uint256"
        }
      ],
      "name": "ERC20InsufficientBalance",
      "type": "error"
    },
    {
      "inputs": [
        {
          "internalType": "address",
          "name": "approver",
          "type": "address"
        }
      ],
      "name": "ERC20InvalidApprover",
      "type": "error"
    },
    {
      "inputs": [
        {
          "internalType": "address",
          "name": "receiver",
          "type": "address"
        }
      ],
      "name": "ERC20InvalidReceiver",
      "type": "error"
    },
    {
      "inputs": [
        {
          "internalType": "address",
          "name": "sender",
          "type": "address"
        }
      ],
      "name": "ERC20InvalidSender",
      "type": "error"
    },
    {
      "inputs": [
        {
          "internalType": "address",
          "name": "spender",
          "type": "address"
        }
      ],
      "name": "ERC20InvalidSpender",
      "type": "error"
    },
    {
      "inputs": [],
      "name": "ReentrancyGuardReentrantCall",
      "type": "error"
    },
    {
      "anonymous": false,
      "inputs": [
        {
          "indexed": true,
          "internalType": "address",
          "name": "owner",
          "type": "address"
        },
        {
          "indexed": true,
          "internalType": "address",
          "name": "spender",
          "type": "address"
        },
        {
          "indexed": false,
          "internalType": "uint256",
          "name": "value",
          "type": "uint256"
        }
      ],
      "name": "Approval",
      "type": "event"
    },
    {
      "anonymous": false,
      "inputs": [
        {
          "indexed": true,
          "internalType": "address",
          "name": "from",
          "type": "address"
        },
        {
          "indexed": true,
          "internalType": "address",
          "name": "to",
          "type": "address"
        },
        {
          "indexed": false,
          "internalType": "uint256",
          "name": "value",
          "type": "uint256"
        }
      ],
      "name": "Transfer",
      "type": "event"
    },
    {
      "inputs": [],
      "name": "AI_AGENT_ROLE",
      "outputs": [
        {
          "internalType": "bytes32",
          "name": "",
          "type": "bytes32"
        }
      ],
      "stateMutability": "view",
      "type": "function"
    },
    {
      "inputs": [],
      "name": "CURATOR_ROLE",
      "outputs": [
        {
          "internalType": "bytes32",
          "name": "",
          "type": "bytes32"
        }
      ],
      "stateMutability": "view",
      "type": "function"
    },
    {
      "inputs": [],
      "name": "DAILY_MINT_AMOUNT",
      "outputs": [
        {
          "internalType": "uint256",
          "name": "",
          "type": "uint256"
        }
      ],
      "stateMutability": "view",
      "type": "function"
    },
    {
      "inputs": [],
      "name": "INITIAL_SUPPLY",
      "outputs": [
        {
          "internalType": "uint256",
          "name": "",
          "type": "uint256"
        }
      ],
      "stateMutability": "view",
      "type": "function"
    },
    {
      "inputs": [],
      "name": "SETTLEMENT_ROLE",
      "outputs": [
        {
          "internalType": "bytes32",
          "name": "",
          "type": "bytes32"
        }
      ],
      "stateMutability": "view",
      "type": "function"
    },
    {
      "inputs": [],
      "name": "VOTING_CONTRACT",
      "outputs": [
        {
          "internalType": "bytes32",
          "name": "",
          "type": "bytes32"
        }
      ],
      "stateMutability": "view",
      "type": "function"
    },
    {
      "inputs": [
        {
          "internalType": "address",
          "name": "owner",
          "type": "address"
        },
        {
          "internalType": "address",
          "name": "spender",
          "type": "address"
        }
      ],
      "name": "allowance",
      "outputs": [
        {
          "internalType": "uint256",
          "name": "",
          "type": "uint256"
        }
      ],
      "stateMutability": "view",
      "type": "function"
    },
    {
      "inputs": [
        {
          "internalType": "address",
          "name": "spender",
          "type": "address"
        },
        {
          "internalType": "uint256",
          "name": "value",
          "type": "uint256"
        }
      ],
      "name": "approve",
      "outputs": [
        {
          "internalType": "bool",
          "name": "",
          "type": "bool"
        }
      ],
      "stateMutability": "nonpayable",
      "type": "function"
    },
    {
      "inputs": [
        {
          "internalType": "address",
          "name": "account",
          "type": "address"
        }
      ],
      "name": "balanceOf",
      "outputs": [
        {
          "internalType": "uint256",
          "name": "",
          "type": "uint256"
        }
      ],
      "stateMutability": "view",
      "type": "function"
    },
    {
      "inputs": [],
      "name": "decimals",
      "outputs": [
        {
          "internalType": "uint8",
          "name": "",
          "type": "uint8"
        }
      ],
      "stateMutability": "view",
      "type": "function"
    },
    {
      "inputs": [
        {
          "internalType": "address",
          "name": "to",
          "type": "address"
        },
        {
          "internalType": "uint256",
          "name": "amount",
          "type": "uint256"
        }
      ],
      "name": "distribute",
      "outputs": [],
      "stateMutability": "nonpayable",
      "type": "function"
    },
    {
      "inputs": [],
      "name": "lastMintTime",
      "outputs": [
        {
          "internalType": "uint256",
          "name": "",
          "type": "uint256"
        }
      ],
      "stateMutability": "view",
      "type": "function"
    },
    {
      "inputs": [],
      "name": "mintDailyRewards",
      "outputs": [],
      "stateMutability": "nonpayable",
      "type": "function"
    },
    {
      "inputs": [],
      "name": "name",
      "outputs": [
        {
          "internalType": "string",
          "name": "",
          "type": "string"
        }
      ],
      "stateMutability": "view",
      "type": "function"
    },
    {
      "inputs": [],
      "name": "roleManager",
      "outputs": [
        {
          "internalType": "contract IRoleManager",
          "name": "",
          "type": "address"
        }
      ],
      "stateMutability": "view",
      "type": "function"
    },
    {
      "inputs": [],
      "name": "symbol",
      "outputs": [
        {
          "internalType": "string",
          "name": "",
          "type": "string"
        }
      ],
      "stateMutability": "view",
      "type": "function"
    },
    {
      "inputs": [],
      "name": "totalSupply",
      "outputs": [
        {
          "internalType": "uint256",
          "name": "",
          "type": "uint256"
        }
      ],
      "stateMutability": "view",
      "type": "function"
    },
    {
      "inputs": [
        {
          "internalType": "address",
          "name": "to",
          "type": "address"
        },
        {
          "internalType": "uint256",
          "name": "value",
          "type": "uint256"
        }
      ],
      "name": "transfer",
      "outputs": [
        {
          "internalType": "bool",
          "name": "",
          "type": "bool"
        }
      ],
      "stateMutability": "nonpayable",
      "type": "function"
    },
    {
      "inputs": [
        {
          "internalType": "address",
          "name": "from",
          "type": "address"
        },
        {
          "internalType": "address",
          "name": "to",
          "type": "address"
        },
        {
          "internalType": "uint256",
          "name": "value",
          "type": "uint256"
        }
      ],
      "name": "transferFrom",
      "outputs": [
        {
          "internalType": "bool",
          "name": "",
          "type": "bool"
        }
      ],
      "stateMutability": "nonpayable",
      "type": "function"
    }
  ],
  "bytecode": "0x608060405234801561001057600080fd5b506040516120c23803806120c28339818101604052810190610032919061053f565b806040518060400160405280600d81526020017f4375726174654149546f6b656e000000000000000000000000000000000000008152506040518060400160405280600381526020017f434154000000000000000000000000000000000000000000000000000000000081525081600390816100ae91906107bc565b5080600490816100be91906107bc565b5050506001600581905550600073ffffffffffffffffffffffffffffffffffffffff168173ffffffffffffffffffffffffffffffffffffffff1603610138576040517f08c379a000000000000000000000000000000000000000000000000000000000815260040161012f906108eb565b60405180910390fd5b80600660006101000a81548173ffffffffffffffffffffffffffffffffffffffff021916908373ffffffffffffffffffffffffffffffffffffffff16021790555050600073ffffffffffffffffffffffffffffffffffffffff168173ffffffffffffffffffffffffffffffffffffffff16036101e9576040517f08c379a00000000000000000000000000000000000000000000000000000000081526004016101e0906108eb565b60405180910390fd5b610209336002633b9aca006101fe9190610969565b61022f60201b60201c565b610229306002633b9aca0061021e9190610969565b61022f60201b60201c565b50610a59565b600073ffffffffffffffffffffffffffffffffffffffff168273ffffffffffffffffffffffffffffffffffffffff16036102a15760006040517fec442f0500000000000000000000000000000000000000000000000000000000815260040161029891906109a9565b60405180910390fd5b6102b3600083836102b760201b60201c565b5050565b600073ffffffffffffffffffffffffffffffffffffffff168373ffffffffffffffffffffffffffffffffffffffff16036103095780600260008282546102fd91906109c4565b925050819055506103dc565b60008060008573ffffffffffffffffffffffffffffffffffffffff1673ffffffffffffffffffffffffffffffffffffffff16815260200190815260200160002054905081811015610395578381836040517fe450d38c00000000000000000000000000000000000000000000000000000000815260040161038c93929190610a07565b60405180910390fd5b8181036000808673ffffffffffffffffffffffffffffffffffffffff1673ffffffffffffffffffffffffffffffffffffffff16815260200190815260200160002081905550505b600073ffffffffffffffffffffffffffffffffffffffff168273ffffffffffffffffffffffffffffffffffffffff16036104255780600260008282540392505081905550610472565b806000808473ffffffffffffffffffffffffffffffffffffffff1673ffffffffffffffffffffffffffffffffffffffff168152602001908152602001600020600082825401925050819055505b8173ffffffffffffffffffffffffffffffffffffffff168373ffffffffffffffffffffffffffffffffffffffff167fddf252ad1be2c89b69c2b068fc378daa952ba7f163c4a11628f55a4df523b3ef836040516104cf9190610a3e565b60405180910390a3505050565b600080fd5b600073ffffffffffffffffffffffffffffffffffffffff82169050919050565b600061050c826104e1565b9050919050565b61051c81610501565b811461052757600080fd5b50565b60008151905061053981610513565b92915050565b600060208284031215610555576105546104dc565b5b60006105638482850161052a565b91505092915050565b600081519050919050565b7f4e487b7100000000000000000000000000000000000000000000000000000000600052604160045260246000fd5b7f4e487b7100000000000000000000000000000000000000000000000000000000600052602260045260246000fd5b600060028204905060018216806105ed57607f821691505b602082108103610600576105ff6105a6565b5b50919050565b60008190508160005260206000209050919050565b60006020601f8301049050919050565b600082821b905092915050565b6000600883026106687fffffffffffffffffffffffffffffffffffffffffffffffffffffffffffffffff8261062b565b610672868361062b565b95508019841693508086168417925050509392505050565b6000819050919050565b6000819050919050565b60006106b96106b46106af8461068a565b610694565b61068a565b9050919050565b6000819050919050565b6106d38361069e565b6106e76106df826106c0565b848454610638565b825550505050565b600090565b6106fc6106ef565b6107078184846106ca565b505050565b5b8181101561072b576107206000826106f4565b60018101905061070d565b5050565b601f8211156107705761074181610606565b61074a8461061b565b81016020851015610759578190505b61076d6107658561061b565b83018261070c565b50505b505050565b600082821c905092915050565b600061079360001984600802610775565b1980831691505092915050565b60006107ac8383610782565b9150826002028217905092915050565b6107c58261056c565b67ffffffffffffffff8111156107de576107dd610577565b5b6107e882546105d5565b6107f382828561072f565b600060209050601f8311600181146108265760008415610814578287015190505b61081e85826107a0565b865550610886565b601f19841661083486610606565b60005b8281101561085c57848901518255600182019150602085019450602081019050610837565b868310156108795784890151610875601f891682610782565b8355505b6001600288020188555050505b505050505050565b600082825260208201905092915050565b7f496e76616c696420526f6c654d616e6167657220616464726573730000000000600082015250565b60006108d5601b8361088e565b91506108e08261089f565b602082019050919050565b60006020820190508181036000830152610904816108c8565b9050919050565b7f4e487b7100000000000000000000000000000000000000000000000000000000600052601260045260246000fd5b7f4e487b7100000000000000000000000000000000000000000000000000000000600052601160045260246000fd5b60006109748261068a565b915061097f8361068a565b92508261098f5761098e61090b565b5b828204905092915050565b6109a381610501565b82525050565b60006020820190506109be600083018461099a565b92915050565b60006109cf8261068a565b91506109da8361068a565b92508282019050808211156109f2576109f161093a565b5b92915050565b610a018161068a565b82525050565b6000606082019050610a1c600083018661099a565b610a2960208301856109f8565b610a3660408301846109f8565b949350505050565b6000602082019050610a5360008301846109f8565b92915050565b61165a80610a686000396000f3fe608060405234801561001057600080fd5b50600436106101205760003560e01c806370a08231116100ad578063a5ebc84411610071578063a5ebc844146102eb578063a9059cbb14610309578063ba9cf01d14610339578063dd62ed3e14610357578063fb9321081461038757610120565b806370a082311461025757806395aaed921461028757806395d89b411461029157806397b62a72146102af5780639d463520146102cd57610120565b806323b872dd116100f457806323b872dd146101af57806325b8e7eb146101df5780632ff2e9dc146101fd578063313ce5671461021b5780634a2cfb541461023957610120565b8062435da51461012557806306fdde0314610143578063095ea7b31461016157806318160ddd14610191575b600080fd5b61012d6103a3565b60405161013a919061106f565b60405180910390f35b61014b6103c9565b604051610158919061111a565b60405180910390f35b61017b600480360381019061017691906111b5565b61045b565b6040516101889190611210565b60405180910390f35b61019961047e565b6040516101a6919061123a565b60405180910390f35b6101c960048036038101906101c49190611255565b610488565b6040516101d69190611210565b60405180910390f35b6101e76104b7565b6040516101f491906112c1565b60405180910390f35b6102056104db565b604051610212919061123a565b60405180910390f35b6102236104e3565b60405161023091906112f8565b60405180910390f35b6102416104ec565b60405161024e91906112c1565b60405180910390f35b610271600480360381019061026c9190611313565b610510565b60405161027e919061123a565b60405180910390f35b61028f610558565b005b6102996106d0565b6040516102a6919061111a565b60405180910390f35b6102b7610762565b6040516102c491906112c1565b60405180910390f35b6102d5610786565b6040516102e2919061123a565b60405180910390f35b6102f361078c565b604051610300919061123a565b60405180910390f35b610323600480360381019061031e91906111b5565b610793565b6040516103309190611210565b60405180910390f35b6103416107b6565b60405161034e91906112c1565b60405180910390f35b610371600480360381019061036c9190611340565b6107da565b60405161037e919061123a565b60405180910390f35b6103a1600480360381019061039c91906111b5565b610861565b005b600660009054906101000a900473ffffffffffffffffffffffffffffffffffffffff1681565b6060600380546103d8906113af565b80601f0160208091040260200160405190810160405280929190818152602001828054610404906113af565b80156104515780601f1061042657610100808354040283529160200191610451565b820191906000526020600020905b81548152906001019060200180831161043457829003601f168201915b5050505050905090565b60008061046661097f565b9050610473818585610987565b600191505092915050565b6000600254905090565b60008061049361097f565b90506104a0858285610999565b6104ab858585610a2e565b60019150509392505050565b7ffaa623ff490ff9197b5ad863cd7f72b33e2e131994d09bd7260d7cd680faad7981565b633b9aca0081565b60006012905090565b7f850d585eb7f024ccee5e68e55f2c26cc72e1e6ee456acf62135757a5eb9d4a1081565b60008060008373ffffffffffffffffffffffffffffffffffffffff1673ffffffffffffffffffffffffffffffffffffffff168152602001908152602001600020549050919050565b7f300f9ae985dc711960f7a4d1dd013f9c19ecf40bff149522ab7523b2187a3846600660009054906101000a900473ffffffffffffffffffffffffffffffffffffffff1673ffffffffffffffffffffffffffffffffffffffff166391d1485482336040518363ffffffff1660e01b81526004016105d69291906113ef565b602060405180830381865afa1580156105f3573d6000803e3d6000fd5b505050506040513d601f19601f820116820180604052508101906106179190611444565b610656576040517f08c379a000000000000000000000000000000000000000000000000000000000815260040161064d906114e3565b60405180910390fd5b61065e610b22565b6201518060075461066f9190611532565b4210156106b1576040517f08c379a00000000000000000000000000000000000000000000000000000000081526004016106a8906115b2565b60405180910390fd5b426007819055506106c530620186a0610b68565b6106cd610bea565b50565b6060600480546106df906113af565b80601f016020809104026020016040519081016040528092919081815260200182805461070b906113af565b80156107585780601f1061072d57610100808354040283529160200191610758565b820191906000526020600020905b81548152906001019060200180831161073b57829003601f168201915b5050505050905090565b7f07777a76947b185654bacbede92fa7043b0ec4c08f225b10ec1e040f321897bb81565b60075481565b620186a081565b60008061079e61097f565b90506107ab818585610a2e565b600191505092915050565b7f300f9ae985dc711960f7a4d1dd013f9c19ecf40bff149522ab7523b2187a384681565b6000600160008473ffffffffffffffffffffffffffffffffffffffff1673ffffffffffffffffffffffffffffffffffffffff16815260200190815260200160002060008373ffffffffffffffffffffffffffffffffffffffff1673ffffffffffffffffffffffffffffffffffffffff16815260200190815260200160002054905092915050565b7f300f9ae985dc711960f7a4d1dd013f9c19ecf40bff149522ab7523b2187a3846600660009054906101000a900473ffffffffffffffffffffffffffffffffffffffff1673ffffffffffffffffffffffffffffffffffffffff166391d1485482336040518363ffffffff1660e01b81526004016108df9291906113ef565b602060405180830381865afa1580156108fc573d6000803e3d6000fd5b505050506040513d601f19601f820116820180604052508101906109209190611444565b61095f576040517f08c379a0000000000000000000000000000000000000000000000000000000008152600401610956906114e3565b60405180910390fd5b610967610b22565b610972308484610a2e565b61097a610bea565b505050565b600033905090565b6109948383836001610bf4565b505050565b60006109a584846107da565b90507fffffffffffffffffffffffffffffffffffffffffffffffffffffffffffffffff811015610a285781811015610a18578281836040517ffb8f41b2000000000000000000000000000000000000000000000000000000008152600401610a0f939291906115d2565b60405180910390fd5b610a2784848484036000610bf4565b5b50505050565b600073ffffffffffffffffffffffffffffffffffffffff168373ffffffffffffffffffffffffffffffffffffffff1603610aa05760006040517f96c6fd1e000000000000000000000000000000000000000000000000000000008152600401610a979190611609565b60405180910390fd5b600073ffffffffffffffffffffffffffffffffffffffff168273ffffffffffffffffffffffffffffffffffffffff1603610b125760006040517fec442f05000000000000000000000000000000000000000000000000000000008152600401610b099190611609565b60405180910390fd5b610b1d838383610dcb565b505050565b600260055403610b5e576040517f3ee5aeb500000000000000000000000000000000000000000000000000000000815260040160405180910390fd5b6002600581905550565b600073ffffffffffffffffffffffffffffffffffffffff168273ffffffffffffffffffffffffffffffffffffffff1603610bda5760006040517fec442f05000000000000000000000000000000000000000000000000000000008152600401610bd19190611609565b60405180910390fd5b610be660008383610dcb565b5050565b6001600581905550565b600073ffffffffffffffffffffffffffffffffffffffff168473ffffffffffffffffffffffffffffffffffffffff1603610c665760006040517fe602df05000000000000000000000000000000000000000000000000000000008152600401610c5d9190611609565b60405180910390fd5b600073ffffffffffffffffffffffffffffffffffffffff168373ffffffffffffffffffffffffffffffffffffffff1603610cd85760006040517f94280d62000000000000000000000000000000000000000000000000000000008152600401610ccf9190611609565b60405180910390fd5b81600160008673ffffffffffffffffffffffffffffffffffffffff1673ffffffffffffffffffffffffffffffffffffffff16815260200190815260200160002060008573ffffffffffffffffffffffffffffffffffffffff1673ffffffffffffffffffffffffffffffffffffffff168152602001908152602001600020819055508015610dc5578273ffffffffffffffffffffffffffffffffffffffff168473ffffffffffffffffffffffffffffffffffffffff167f8c5be1e5ebec7d5bd14f71427d1e84f3dd0314c0f7b2291e5b200ac8c7c3b92584604051610dbc919061123a565b60405180910390a35b50505050565b600073ffffffffffffffffffffffffffffffffffffffff168373ffffffffffffffffffffffffffffffffffffffff1603610e1d578060026000828254610e119190611532565b92505081905550610ef0565b60008060008573ffffffffffffffffffffffffffffffffffffffff1673ffffffffffffffffffffffffffffffffffffffff16815260200190815260200160002054905081811015610ea9578381836040517fe450d38c000000000000000000000000000000000000000000000000000000008152600401610ea0939291906115d2565b60405180910390fd5b8181036000808673ffffffffffffffffffffffffffffffffffffffff1673ffffffffffffffffffffffffffffffffffffffff16815260200190815260200160002081905550505b600073ffffffffffffffffffffffffffffffffffffffff168273ffffffffffffffffffffffffffffffffffffffff1603610f395780600260008282540392505081905550610f86565b806000808473ffffffffffffffffffffffffffffffffffffffff1673ffffffffffffffffffffffffffffffffffffffff168152602001908152602001600020600082825401925050819055505b8173ffffffffffffffffffffffffffffffffffffffff168373ffffffffffffffffffffffffffffffffffffffff167fddf252ad1be2c89b69c2b068fc378daa952ba7f163c4a11628f55a4df523b3ef83604051610fe3919061123a565b60405180910390a3505050565b600073ffffffffffffffffffffffffffffffffffffffff82169050919050565b6000819050919050565b600061103561103061102b84610ff0565b611010565b610ff0565b9050919050565b60006110478261101a565b9050919050565b60006110598261103c565b9050919050565b6110698161104e565b82525050565b60006020820190506110846000830184611060565b92915050565b600081519050919050565b600082825260208201905092915050565b60005b838110156110c45780820151818401526020810190506110a9565b60008484015250505050565b6000601f19601f8301169050919050565b60006110ec8261108a565b6110f68185611095565b93506111068185602086016110a6565b61110f816110d0565b840191505092915050565b6000602082019050818103600083015261113481846110e1565b905092915050565b600080fd5b600061114c82610ff0565b9050919050565b61115c81611141565b811461116757600080fd5b50565b60008135905061117981611153565b92915050565b6000819050919050565b6111928161117f565b811461119d57600080fd5b50565b6000813590506111af81611189565b92915050565b600080604083850312156111cc576111cb61113c565b5b60006111da8582860161116a565b92505060206111eb858286016111a0565b9150509250929050565b60008115159050919050565b61120a816111f5565b82525050565b60006020820190506112256000830184611201565b92915050565b6112348161117f565b82525050565b600060208201905061124f600083018461122b565b92915050565b60008060006060848603121561126e5761126d61113c565b5b600061127c8682870161116a565b935050602061128d8682870161116a565b925050604061129e868287016111a0565b9150509250925092565b6000819050919050565b6112bb816112a8565b82525050565b60006020820190506112d660008301846112b2565b92915050565b600060ff82169050919050565b6112f2816112dc565b82525050565b600060208201905061130d60008301846112e9565b92915050565b6000602082840312156113295761132861113c565b5b60006113378482850161116a565b91505092915050565b600080604083850312156113575761135661113c565b5b60006113658582860161116a565b92505060206113768582860161116a565b9150509250929050565b7f4e487b7100000000000000000000000000000000000000000000000000000000600052602260045260246000fd5b600060028204905060018216806113c757607f821691505b6020821081036113da576113d9611380565b5b50919050565b6113e981611141565b82525050565b600060408201905061140460008301856112b2565b61141160208301846113e0565b9392505050565b611421816111f5565b811461142c57600080fd5b50565b60008151905061143e81611418565b92915050565b60006020828403121561145a5761145961113c565b5b60006114688482850161142f565b91505092915050565b7f43616c6c657220646f6573206e6f74206861766520726571756972656420726f60008201527f6c65000000000000000000000000000000000000000000000000000000000000602082015250565b60006114cd602283611095565b91506114d882611471565b604082019050919050565b600060208201905081810360008301526114fc816114c0565b9050919050565b7f4e487b7100000000000000000000000000000000000000000000000000000000600052601160045260246000fd5b600061153d8261117f565b91506115488361117f565b92508282019050808211156115605761155f611503565b5b92915050565b7f43616e206f6e6c79206d696e74206f6e63652070657220646179000000000000600082015250565b600061159c601a83611095565b91506115a782611566565b602082019050919050565b600060208201905081810360008301526115cb8161158f565b9050919050565b60006060820190506115e760008301866113e0565b6115f4602083018561122b565b611601604083018461122b565b949350505050565b600060208201905061161e60008301846113e0565b9291505056fea26469706673582212205ae64de867f7a287499b0cb76fbcefa87951d9fde327545386e779200f7c988f64736f6c634300081c0033",
  "linkReferences": {},
  "deployedLinkReferences": {}
}